:100000000C945D000C9485000C9485000C94850084
:100010000C9485000C9485000C9485000C9485004C
:100020000C9485000C9485000C9485000C9485003C
:100030000C9485000C9485000C9485000C9485002C
:100040000C94FD020C9485000C94CB020C94A50238
:100050000C9485000C9485000C9485000C9485000C
:100060000C9485000C94850000000008000201003B
:100070000003040700000000000000000000000072
:10008000250028002B0000000000240027002A0083
:10009000040404040404040402020202020203032E
:1000A0000303030301020408102040800102040836
:1000B0001020010204081020470311241FBECFEFB7
:1000C000D8E0DEBFCDBF22E0A6E3B1E001C01D92C3
:1000D000A632B207E1F711E0A0E0B1E0E2E3FCE014
:1000E00002C005900D92A633B107D9F710E0CDE517
:1000F000D0E004C02197FE010E940C06CC35D10748
:10010000C9F70E948C030C9417060C94000090E031
:10011000FC01EC55FF4F2491FC01E057FF4F849107
:10012000882399F090E0880F991FFC01EA57FF4F50
:10013000A591B491FC01E458FF4F859194918FB73C
:10014000F894EC91E22BEC938FBF08952FB7F894BD
:1001500080913B0190913C01A0913D01B0913E0105
:100160002FBF8093470190934801A0934901B0931A
:100170004A01E0913F01F09140010084F185E02DBA
:100180008FE391E0099597FF26C02FB7F8948091EF
:100190003B0190913C01A0913D01B0913E012FBFE8
:1001A00040914701509148016091490170914A0185
:1001B000841B950BA60BB70B409143015091440152
:1001C000609145017091460184179507A607B7070E
:1001D00080F28FEF9FEF0895CF92DF92EF92FF9220
:1001E0000F931F93CF93DF936C017A018B01C0E0D3
:1001F000D0E0CE15DF0589F0D8016D918D01D601D3
:10020000ED91FC910190F081E02DC6010995892BBB
:1002100011F47E0102C02196ECCFC701DF91CF918E
:100220001F910F91FF90EF90DF90CF900895FC0108
:10023000918D828D981761F0828DDF01A80FB11D1D
:100240005D968C91928D9F5F9F73928F90E0089541
:100250008FEF9FEF0895FC01918D828D981731F0FB
:10026000828DE80FF11D858D90E008958FEF9FEF4F
:100270000895FC01918D228D892F90E0805C9F4F25
:10028000821B91098F73992708958FE391E00E9453
:10029000390121E0892B09F420E0822F0895FC0127
:1002A000848DDF01A80FB11DA35ABF4F2C91848DFF
:1002B00090E001968F739927848FA689B7892C9334
:1002C000A089B1898C9180648C93938D848D9813CF
:1002D00006C00288F389E02D80818F7D8083089598
:1002E000EF92FF920F931F93CF93DF93EC0181E086
:1002F000888F9B8D8C8D981305C0E889F989808142
:1003000085FD24C0F62E0B8D10E00F5F1F4F0F737D
:100310001127E02E8C8DE8120CC00FB607FCFACF27
:10032000E889F989808185FFF5CFCE010E944F01D0
:10033000F1CF8B8DFE01E80FF11DE35AFF4FF082E4
:100340000B8FEA89FB898081806207C0EE89FF8973
:100350006083E889F98980818064808381E090E00E
:10036000DF91CF911F910F91FF90EF900895CF9360
:10037000DF93EC01888D8823C9F0EA89FB898081AD
:1003800085FD05C0A889B9898C9186FD0FC00FB67F
:1003900007FCF5CF808185FFF2CFA889B9898C91C0
:1003A00085FFEDCFCE010E944F01E7CFDF91CF91C6
:1003B000089580E090E0892B29F00E944501811189
:1003C0000C940000089590E0FC01E859FF4F34912F
:1003D000FC01EC55FF4F2491FC01E057FF4FE491E5
:1003E000EE2309F43BC0332339F1333091F038F474
:1003F0003130A9F0323001F584B58F7D12C037302D
:1004000091F03830A1F03430B9F4809180008F7DC4
:1004100003C0809180008F77809380000DC084B5E9
:100420008F7784BD09C08091B0008F7703C0809121
:10043000B0008F7D8093B000F0E0EE0FFF1FE45816
:10044000FF4FA591B4918FB7F894EC91611103C05F
:1004500020952E2301C02E2B2C938FBF08953FB7DC
:10046000F8948091370190913801A0913901B091B1
:100470003A0126B5A89B05C02F3F19F00196A11D92
:10048000B11D3FBFBA2FA92F982F8827820F911D2A
:10049000A11DB11DBC01CD0142E0660F771F881F71
:1004A000991F4A95D1F708958F929F92AF92BF926C
:1004B000CF92DF92EF92FF926B017C010E942F029C
:1004C0004B015C01C114D104E104F104F1F00E947C
:1004D0002F02DC01CB0188199909AA09BB09883EC2
:1004E0009340A105B10570F321E0C21AD108E108DB
:1004F000F10888EE880E83E0981EA11CB11CC1147F
:10050000D104E104F10419F7DDCFFF90EF90DF9003
:10051000CF90BF90AF909F908F9008950E94120649
:100520006115710579F0FB0101900020E9F7319721
:10053000AF01461B570BDC01ED91FC910280F3816A
:10054000E02D099480E090E008951F920F920FB67D
:100550000F9211242F933F934F935F936F937F9349
:100560008F939F93AF93BF93EF93FF938FE391E0AC
:100570000E944F01FF91EF91BF91AF919F918F9199
:100580007F916F915F914F913F912F910F900FBE8F
:100590000F901F9018951F920F920FB60F92112473
:1005A0002F938F939F93EF93FF93E0914F01F091DF
:1005B00050018081E0915501F091560182FD12C0F9
:1005C0009081809158018F5F8F732091590182171C
:1005D00051F0E0915801F0E0E15CFE4F958F80937F
:1005E000580101C08081FF91EF919F918F912F91D0
:1005F0000F900FBE0F901F9018951F920F920FB67D
:100600000F9211242F933F938F939F93AF93BF9398
:1006100080913B0190913C01A0913D01B0913E0140
:100620003091360123E0230F2D3720F40196A11DD0
:10063000B11D05C026E8230F0296A11DB11D209310
:10064000360180933B0190933C01A0933D01B09310
:100650003E018091370190913801A0913901B0910C
:100660003A010196A11DB11D809337019093380185
:10067000A0933901B0933A01BF91AF919F918F91AF
:100680003F912F910F900FBE0F901F901895EFE3A1
:10069000F1E01382128288EE93E0A0E0B0E0848360
:1006A0009583A683B78384E091E09183808385EC72
:1006B00090E09587848784EC90E09787868780EC2C
:1006C00090E0918B808B81EC90E0938B828B82EC1D
:1006D00090E0958B848B86EC90E0978B868B118EC7
:1006E000128E138E148EECEDF1E0168217821086B6
:1006F0001186128613861486158616861786108A2A
:10070000118A128A138A148A158A8DE090E09093D8
:100710002502809324020895CF93DF93CDB7DEB7EF
:10072000A5970FB6F894DEBF0FBECDBF789484B501
:10073000826084BD84B5816084BD85B5826085BDDD
:1007400085B5816085BD80916E00816080936E006B
:10075000109281008091810082608093810080915D
:10076000810081608093810080918000816080930E
:1007700080008091B10084608093B1008091B000CE
:1007800081608093B00080917A00846080937A00C9
:1007900080917A00826080937A0080917A008160F3
:1007A00080937A0080917A00806880937A0010921A
:1007B000C100109220021092210210922202109287
:1007C00023021092DE011092DF011092E0011092DC
:1007D000E10168EB7BE080E090E00E9454028FE34F
:1007E00091E090931F0280931E02E0914F01F091DF
:1007F000500102E00083E0914B01F0914C01108226
:10080000E0914D01F0914E0180E1808310925701FB
:10081000E0915301F091540116E01083E0915101F1
:10082000F0915201808180618083E0915101F091CB
:100830005201808188608083E0915101F0915201E2
:10084000808180688083E0915101F0915201808124
:100850008F7D80832FB7F89480913B0190913C016C
:10086000A0913D01B0913E012FBF8093DE01909396
:10087000DF01A093E001B093E10160E171E08091BC
:100880001E0290911F020E9490026AE070E080E0D8
:1008900090E00E94540281E08093F2018091240252
:1008A0000E948700F09024028F2D0E94870061E053
:1008B0008F2D0E94E301E0914F01F09150010083E0
:1008C000E0914B01F0914C011082E0914D01F091CB
:1008D0004E018FEC808310925701E0915301F0910B
:1008E00054011083E0915101F091520180818061A7
:1008F0008083E0915101F091520180818860808372
:10090000E0915101F0915201808180688083E091F3
:100910005101F091520180818F7D8083CC24CA9453
:10092000D12C9AE0492E512C612C712C8FE391E04F
:100930000E943901892B09F40EC18FE391E00E94D6
:100940001701F82E0E94A600FC0197FD11C08D3200
:10095000910591F0C0970A9778F0E0913F01F091EE
:1009600040010680F781E02D8FE391E00995EACF01
:10097000812C912C54012DC020E030E0A90110E021
:10098000E130F10509F0EAC0E0913F01F09140014A
:100990000680F781E02D8FE391E02AA33BA34CA3CF
:1009A0005DA309950E94A600FC01C0972AA13BA166
:1009B0004CA15DA10A9720F3E130F10509F3112361
:1009C00009F4EBC0882499245401821A930AA40ADA
:1009D000B50A140162E271E08FE391E00E94900297
:1009E000E0913F01F09140010190F081E02D6F2DE9
:1009F0008FE391E009956FE171E08FE391E00E9450
:100A00009002092C000CAA08BB08B7FE26C0E09192
:100A10003F01F09140010190F081E02D6DE28FE304
:100A200091E0099522273327A901281939094A0994
:100A30005B0919A28E010F5D1F4FCA01B901A30105
:100A400092010E94D005605DF80162938F0121152B
:100A500031054105510589F715C0A501940119A279
:100A60008E010F5D1F4FCA01B901A30192010E94BF
:100A7000D005605DF80162938F01211531054105B4
:100A8000510589F7B8018FE391E00E9490026FE170
:100A900071E08FE391E00E949002F2E7FF125BC0E9
:100AA000860102191309A0902402B09025028A2D14
:100AB0000E9487000115110509F447C00F3F110579
:100AC00009F445C0F501FF27E859FF4FE491E330F1
:100AD000F9F048F4E130B9F0E230A1F584B5806274
:100AE00084BD08BD38C0E730E9F0E83019F1E430E2
:100AF00049F58091800080628093800010938B0084
:100B000000938A0028C084B5806884BD07BD23C0D7
:100B1000809180008068809380001093890000930A
:100B2000880019C08091B00080688093B000009365
:100B3000B30011C08091B00080628093B000009338
:100B4000B40009C00038110514F460E001C061E090
:100B50008A2D0E94E3010E94D901E8CEED32F10511
:100B6000D1F0CF01C0970A9708F00ECFAAE0B0E00D
:100B70000E94F2054F01FF0FAA08BB08DC01CB0160
:100B8000880D991DAA1DBB1D9C01AD012053310983
:100B900041095109F9CE11E0F7CE49015A0119CFA7
:100BA000A1E21A2EAA1BBB1BFD010DC0AA1FBB1F71
:100BB000EE1FFF1FA217B307E407F50720F0A21BE3
:100BC000B30BE40BF50B661F771F881F991F1A9450
:100BD00069F760957095809590959B01AC01BD017A
:100BE000CF0108950E94FD05A59F900DB49F900D23
:100BF000A49F800D911D11240895A29FB001B39F61
:100C0000C001A39F700D811D1124911DB29F700D15
:100C1000811D1124911D0895EE0FFF1F0590F49181
:100C2000E02D099481E090E0F8940C941706F89474
:020C3000FFCFF4
:100C3200000000007001EC00390117012B01B7011F
:100C4200564D4450565F317C315F564D4450560DDF
:100C52000A000A2056616C7565206F662042757421
:060C6200746F6E20090012
:00000001FF
