:100000000C9462000C948A000C948A000C948A0070
:100010000C948A000C948A000C948A000C948A0038
:100020000C948A000C948A000C948A000C948A0028
:100030000C948A000C948A000C948A000C948A0018
:100040000C9428030C948A000C94F6020C94D002B1
:100050000C948A000C948A000C948A000C948A00F8
:100060000C948A000C948A000000000024002700F1
:100070002A000000000023002600290000000000E4
:10008000250028002B0004040404040404040202D4
:100090000202020203030303030301020408102007
:1000A0004080010204081020010204081020000012
:1000B0000008000201000003040700000000000027
:1000C0000000720311241FBECFEFD8E0DEBFCDBF0A
:1000D00011E0A0E0B1E0E0E9FAE002C005900D9285
:1000E000A832B107D9F721E0A8E2B1E001C01D9222
:1000F000AC3DB207E1F710E0C2E6D0E004C02197C2
:10010000FE010E943B05C136D107C9F70E94BA0320
:100110000C9446050C940000CF92DF92EF92FF9270
:100120000F931F93CF93DF936C017A018B01C0E093
:10013000D0E0CE15DF0589F0D8016D918D01D60193
:10014000ED91FC910190F081E02DC6010995892B7C
:1001500011F47E0102C02196ECCFC701DF91CF914F
:100160001F910F91FF90EF90DF90CF900895FC01C9
:10017000918D828D981761F0828DDF01A80FB11DDE
:100180005D968C91928D9F5F9F73928F90E0089502
:100190008FEF9FEF0895FC01918D828D981731F0BC
:1001A000828DE80FF11D858D90E008958FEF9FEF10
:1001B0000895FC01918D228D892F90E0805C9F4FE6
:1001C000821B91098F73992708958DE291E00E9417
:1001D000D90021E0892B09F420E0822F0895FC0149
:1001E000848DDF01A80FB11DA35ABF4F2C91848DC0
:1001F00090E001968F739927848FA689B7892C93F5
:10020000A089B1898C9180648C93938D848D98138F
:1002100006C00288F389E02D80818F7D8083089558
:10022000EF92FF920F931F93CF93DF93EC0181E046
:10023000888F9B8D8C8D981305C0E889F989808102
:1002400085FD24C0F62E0B8D10E00F5F1F4F0F733E
:100250001127E02E8C8DE8120CC00FB607FCFACFE8
:10026000E889F989808185FFF5CFCE010E94EF00F2
:10027000F1CF8B8DFE01E80FF11DE35AFF4FF082A5
:100280000B8FEA89FB898081806207C0EE89FF8934
:100290006083E889F98980818064808381E090E0CF
:1002A000DF91CF911F910F91FF90EF900895CF9321
:1002B000DF93EC01888D8823C9F0EA89FB8980816E
:1002C00085FD05C0A889B9898C9186FD0FC00FB640
:1002D00007FCF5CF808185FFF2CFA889B9898C9181
:1002E00085FFEDCFCE010E94EF00E7CFDF91CF91E8
:1002F000089580E090E0892B29F00E94E5008111AB
:100300000C9400000895833081F028F4813099F036
:100310008230A1F008958730A9F08830B9F0843098
:10032000D1F4809180008F7D03C0809180008F7711
:1003300080938000089584B58F7702C084B58F7D47
:1003400084BD08958091B0008F7703C08091B00084
:100350008F7D8093B00008951F93CF93DF93EBEBD5
:10036000F0E09491E7EAF0E0D491E3E9F0E0C491A1
:10037000CC23D9F0182F992319F0892F0E948301DB
:10038000EC2FF0E0EE0FFF1FE458FF4FA591B49162
:100390008FB7F894111105C09C91ED2FE095E923DA
:1003A00002C0EC91ED2BEC938FBFDF91CF911F91A9
:1003B0000895CF93DF9390E0FC01E656FF4F249120
:1003C000FC01EA57FF4F8491882361F190E0880F88
:1003D000991FFC01E859FF4FC591D491FC01E458E5
:1003E000FF4FA591B491611109C09FB7F89488811E
:1003F000209582238883EC912E230BC0623061F418
:100400009FB7F8943881822F809583238883EC915D
:100410002E2B2C939FBF06C08FB7F894E8812E2B0C
:1004200028838FBFDF91CF9108953FB7F8948091D3
:10043000290190912A01A0912B01B0912C0126B5A0
:10044000A89B05C02F3F19F00196A11DB11D3FBF0C
:10045000BA2FA92F982F8827820F911DA11DB11D9A
:10046000BC01CD0142E0660F771F881F991F4A9596
:10047000D1F70895009769F0FC0101900020E9F799
:100480003197AF01481B590BBC018DE291E00C94F0
:100490008C0080E090E008958F929F92AF92BF927F
:1004A000CF92DF92EF92FF920F931F93CF93DF9340
:1004B000CDB7DEB7A1970FB6F894DEBF0FBECDBFA4
:1004C0006C01990FEE08FF08F7FE31C0E0912D0195
:1004D000F0912E010190F081E02D6DE28DE291E02E
:1004E00009958C0122273327A9012C193D094E09B2
:1004F0005F0919A2CE0181967C019AE0892E912C88
:10050000A12CB12CCA01B901A50194010E941905C1
:10051000605DF70162937F012115310541055105A9
:1005200089F7CF010E943A02080F191F1EC0A701C8
:10053000960119A28E010F5D1F4F8AE0C82ED12CA3
:10054000E12CF12CCA01B901A70196010E941905FD
:10055000605DF80162938F01211531054105510558
:1005600089F7CF010E943A028C0180E191E00E945C
:100570003A02800F911FA1960FB6F894DEBF0FBE0E
:10058000CDBFDF91CF911F910F91FF90EF90DF9042
:10059000CF90BF90AF909F908F9008950E9441059B
:1005A0001F920F920FB60F9211242F933F934F93E8
:1005B0005F936F937F938F939F93AF93BF93EF93CB
:1005C000FF938DE291E00E94EF00FF91EF91BF91C8
:1005D000AF919F918F917F916F915F914F913F91DB
:1005E0002F910F900FBE0F901F9018951F920F9292
:1005F0000FB60F9211242F938F939F93EF93FF9336
:10060000E0913D01F0913E018081E0914301F09144
:10061000440182FD12C09081809146018F5F8F73EB
:1006200020914701821751F0E0914601F0E0E35D2F
:10063000FE4F958F8093460101C08081FF91EF911D
:100640009F918F912F910F900FBE0F901F90189533
:100650001F920F920FB60F9211242F933F938F93F7
:100660009F93AF93BF938091CA019091CB01A091CA
:10067000CC01B091CD013091280123E0230F2D371B
:1006800020F40196A11DB11D05C026E8230F029696
:10069000A11DB11D209328018093CA019093CB0125
:1006A000A093CC01B093CD018091290190912A01B2
:1006B000A0912B01B0912C010196A11DB11D809339
:1006C000290190932A01A0932B01B0932C01BF9193
:1006D000AF919F918F913F912F910F900FBE0F90EF
:1006E0001F901895EDE2F1E01382128288EE93E0FC
:1006F000A0E0B0E084839583A683B78384E091E093
:100700009183808385EC90E09587848784EC90E0EA
:100710009787868780EC90E0918B808B81EC90E0CE
:10072000938B828B82EC90E0958B848B86EC90E0AF
:10073000978B868B118E128E138E148E2FB7F89492
:100740008091CA019091CB01A091CC01B091CD01D3
:100750002FBFEEECF1E080839183A283B3838DE021
:1007600090E09387828789E090E09587848715825F
:1007700014820895789484B5826084BD84B58160C4
:1007800084BD85B5826085BD85B5816085BD80915C
:100790006E00816080936E001092810080918100D4
:1007A00082608093810080918100816080938100CC
:1007B000809180008160809380008091B10084608E
:1007C0008093B1008091B00081608093B0008091EF
:1007D0007A00846080937A0080917A0082608093AE
:1007E0007A0080917A00816080937A0080917A000B
:1007F000806880937A001092C100E0913D01F091F1
:100800003E0182E08083E0913901F0913A0110824B
:10081000E0913B01F0913C018FEC80831092450107
:10082000E0914101F091420186E08083E0913F0137
:10083000F0914001808180618083E0913F01F091DF
:100840004001808188608083E0913F01F091400108
:10085000808180688083E0913F01F0914001808138
:100860008F7D808361E08091D8010E94D90160E092
:100870008091DA010E94D90161E08DE00E94D901E6
:1008800080E00E94AC0183E191E00E943A028091F5
:10089000D4019091D5010E944C028091D601909193
:1008A000D7010E944C028091DA018E3008F08E5000
:1008B0008770806480937C0080917A00806480934C
:1008C0007A0080917A0086FDFCCF8091780020919B
:1008D000790090E0922B9093D7018093D6012091DC
:1008E000DA013091DB013327F901E255FF4F8491A2
:1008F000F901E656FF4FD491F901EA57FF4FC49131
:10090000CC23A1F081110E948301EC2FF0E0EE0FC7
:10091000FF1FEE58FF4FA591B491EC91ED2331E00C
:1009200020E009F430E0832F922F02C080E090E0B5
:100930009093D5018093D4012091D2013091D301BD
:100940002115310521F02130310511F148C08130E8
:10095000910509F044C09093D3018093D2012FB741
:10096000F8948091CA019091CB01A091CC01B091F3
:10097000CD012FBF8093CE019093CF01A093D001E2
:10098000B093D10161E08DE00E94D90181E025C0E2
:100990002FB7F8948091CA019091CB01A091CC011E
:1009A000B091CD012FBF4091CE015091CF01609108
:1009B000D0017091D101841B950BA60BB70B883E1B
:1009C0009340A105B10558F01092D3011092D201C5
:1009D00061E08DE00E94D90180E00E94AC010E949C
:1009E00015024B015C0188E8C82E83E1D82EE12C6A
:1009F000F12C0E941502DC01CB0188199909AA0982
:100A0000BB09883E9340A105B10558F081E0C81AA2
:100A1000D108E108F10828EE820E23E0921EA11C05
:100A2000B11CC114D104E104F10419F70E94790149
:100A30002ACFA1E21A2EAA1BBB1BFD010DC0AA1FC3
:100A4000BB1FEE1FFF1FA217B307E407F50720F037
:100A5000A21BB30BE40BF50B661F771F881F991FB2
:100A60001A9469F760957095809590959B01AC01FB
:100A7000BD01CF010895EE0FFF1F0590F491E02D09
:100A8000099481E090E0F8940C944605F894FFCF27
:100A90000000000010018C00D900B700CB00570106
:100AA0000D0A000A2056616C7565206F662042753C
:080AB00074746F6E2009000050
:107E0000112484B714BE81FFF0D085E080938100F7
:107E100082E08093C00088E18093C10086E0809377
:107E2000C20080E18093C4008EE0C9D0259A86E02C
:107E300020E33CEF91E0309385002093840096BBD3
:107E4000B09BFECF1D9AA8958150A9F7CC24DD24C4
:107E500088248394B5E0AB2EA1E19A2EF3E0BF2EE7
:107E6000A2D0813461F49FD0082FAFD0023811F036
:107E7000013811F484E001C083E08DD089C08234E0
:107E800011F484E103C0853419F485E0A6D080C0E4
:107E9000853579F488D0E82EFF2485D0082F10E0AE
:107EA000102F00270E291F29000F111F8ED06801E7
:107EB0006FC0863521F484E090D080E0DECF843638
:107EC00009F040C070D06FD0082F6DD080E0C81688
:107ED00080E7D80618F4F601B7BEE895C0E0D1E017
:107EE00062D089930C17E1F7F0E0CF16F0E7DF06D8
:107EF00018F0F601B7BEE89568D007B600FCFDCFD4
:107F0000A601A0E0B1E02C9130E011968C91119780
:107F100090E0982F8827822B932B1296FA010C0160
:107F200087BEE89511244E5F5F4FF1E0A038BF0790
:107F300051F7F601A7BEE89507B600FCFDCF97BE46
:107F4000E89526C08437B1F42ED02DD0F82E2BD052
:107F50003CD0F601EF2C8F010F5F1F4F84911BD097
:107F6000EA94F801C1F70894C11CD11CFA94CF0C13
:107F7000D11C0EC0853739F428D08EE10CD085E9AC
:107F80000AD08FE07ACF813511F488E018D01DD067
:107F900080E101D065CF982F8091C00085FFFCCF94
:107FA0009093C60008958091C00087FFFCCF809118
:107FB000C00084FD01C0A8958091C6000895E0E648
:107FC000F0E098E1908380830895EDDF803219F02E
:107FD00088E0F5DFFFCF84E1DECF1F93182FE3DFCA
:107FE0001150E9F7F2DF1F91089580E0E8DFEE27F6
:047FF000FF270994CA
:027FFE00040479
:0400000300007E007B
:00000001FF