:100000000C9462000C948A000C948A000C948A0070
:100010000C948A000C948A000C948A000C948A0038
:100020000C948A000C948A000C948A000C948A0028
:100030000C948A000C948A000C948A000C948A0018
:100040000C94A6020C948A000C9474020C944E0238
:100050000C948A000C948A000C948A000C948A00F8
:100060000C948A000C948A000000000024002700F1
:100070002A000000000023002600290000000000E4
:10008000250028002B0004040404040404040202D4
:100090000202020203030303030301020408102007
:1000A0004080010204081020010204081020000012
:1000B0000008000201000003040700000000000027
:1000C0000000F00211241FBECFEFD8E0DEBFCDBF8D
:1000D00011E0A0E0B1E0E2EBF9E002C005900D9282
:1000E000A832B107D9F721E0A8E2B1E001C01D9222
:1000F000AA3DB207E1F710E0C2E6D0E004C02197C4
:10010000FE010E94CC04C136D107C9F70E94380312
:100110000C94D7040C940000CF92DF92EF92FF92E0
:100120000F931F93CF93DF936C017A018B01C0E093
:10013000D0E0CE15DF0589F0D8016D918D01D60193
:10014000ED91FC910190F081E02DC6010995892B7C
:1001500011F47E0102C02196ECCFC701DF91CF914F
:100160001F910F91FF90EF90DF90CF900895FC01C9
:10017000918D828D981761F0828DDF01A80FB11DDE
:100180005D968C91928D9F5F9F73928F90E0089502
:100190008FEF9FEF0895FC01918D828D981731F0BC
:1001A000828DE80FF11D858D90E008958FEF9FEF10
:1001B0000895FC01918D228D892F90E0805C9F4FE6
:1001C000821B91098F73992708958DE291E00E9417
:1001D000D90021E0892B09F420E0822F0895FC0149
:1001E000848DDF01A80FB11DA35ABF4F2C91848DC0
:1001F00090E001968F739927848FA689B7892C93F5
:10020000A089B1898C9180648C93938D848D98138F
:1002100006C00288F389E02D80818F7D8083089558
:10022000EF92FF920F931F93CF93DF93EC0181E046
:10023000888F9B8D8C8D981305C0E889F989808102
:1002400085FD24C0F62E0B8D10E00F5F1F4F0F733E
:100250001127E02E8C8DE8120CC00FB607FCFACFE8
:10026000E889F989808185FFF5CFCE010E94EF00F2
:10027000F1CF8B8DFE01E80FF11DE35AFF4FF082A5
:100280000B8FEA89FB898081806207C0EE89FF8934
:100290006083E889F98980818064808381E090E0CF
:1002A000DF91CF911F910F91FF90EF900895CF9321
:1002B000DF93EC01888D8823C9F0EA89FB8980816E
:1002C00085FD05C0A889B9898C9186FD0FC00FB640
:1002D00007FCF5CF808185FFF2CFA889B9898C9181
:1002E00085FFEDCFCE010E94EF00E7CFDF91CF91E8
:1002F000089580E090E0892B29F00E94E5008111AB
:100300000C9400000895833081F028F4813099F036
:100310008230A1F008958730A9F08830B9F0843098
:10032000D1F4809180008F7D03C0809180008F7711
:1003300080938000089584B58F7702C084B58F7D47
:1003400084BD08958091B0008F7703C08091B00084
:100350008F7D8093B00008951F93CF93DF93EBEBD5
:10036000F0E09491E7EAF0E0D491E3E9F0E0C491A1
:10037000CC23D9F0182F992319F0892F0E948301DB
:10038000EC2FF0E0EE0FFF1FE458FF4FA591B49162
:100390008FB7F894111105C09C91ED2FE095E923DA
:1003A00002C0EC91ED2BEC938FBFDF91CF911F91A9
:1003B0000895CF93DF9390E0FC01E656FF4F249120
:1003C000FC01EA57FF4F8491882361F190E0880F88
:1003D000991FFC01E859FF4FC591D491FC01E458E5
:1003E000FF4FA591B491611109C09FB7F89488811E
:1003F000209582238883EC912E230BC0623061F418
:100400009FB7F8943881822F809583238883EC915D
:100410002E2B2C939FBF06C08FB7F894E8812E2B0C
:1004200028838FBFDF91CF9108953FB7F8948091D3
:10043000290190912A01A0912B01B0912C0126B5A0
:10044000A89B05C02F3F19F00196A11DB11D3FBF0C
:10045000BA2FA92F982F8827820F911DA11DB11D9A
:10046000BC01CD0142E0660F771F881F991F4A9596
:10047000D1F70895009769F0FC0101900020E9F799
:100480003197AF01481B590BBC018DE291E00C94F0
:100490008C0080E090E008950E94D2041F920F9299
:1004A0000FB60F9211242F933F934F935F936F9347
:1004B0007F938F939F93AF93BF93EF93FF938DE2BF
:1004C00091E00E94EF00FF91EF91BF91AF919F915A
:1004D0008F917F916F915F914F913F912F910F90ED
:1004E0000FBE0F901F9018951F920F920FB60F928C
:1004F00011242F938F939F93EF93FF93E0913D01EE
:10050000F0913E018081E0914301F091440182FD30
:1005100012C09081809146018F5F8F7320914701B7
:10052000821751F0E0914601F0E0E35DFE4F958FB8
:100530008093460101C08081FF91EF919F918F913F
:100540002F910F900FBE0F901F9018951F920F9232
:100550000FB60F9211242F933F938F939F93AF93D6
:10056000BF938091CA019091CB01A091CC01B09131
:10057000CD013091280123E0230F2D3720F401967F
:10058000A11DB11D05C026E8230F0296A11DB11DB6
:10059000209328018093CA019093CB01A093CC01B2
:1005A000B093CD018091290190912A01A0912B0156
:1005B000B0912C010196A11DB11D8093290190934A
:1005C0002A01A0932B01B0932C01BF91AF919F9171
:1005D0008F913F912F910F900FBE0F901F90189504
:1005E000EDE2F1E01382128288EE93E0A0E0B0E049
:1005F00084839583A683B78384E091E0918380838D
:1006000085EC90E09587848784EC90E097878687D7
:1006100080EC90E0918B808B81EC90E0938B828BCF
:1006200082EC90E0958B848B86EC90E0978B868BA8
:10063000118E128E138E148E2FB7F8948091CA01EA
:100640009091CB01A091CC01B091CD012FBFEEECE8
:10065000F1E080839183A283B3838DE090E0918762
:10066000808789E090E093878287158214820895BD
:10067000CF93DF93CDB7DEB7A1970FB6F894DEBF67
:100680000FBECDBF789484B5826084BD84B581608F
:1006900084BD85B5826085BD85B5816085BD80914D
:1006A0006E00816080936E001092810080918100C5
:1006B00082608093810080918100816080938100BD
:1006C000809180008160809380008091B10084607F
:1006D0008093B1008091B00081608093B0008091E0
:1006E0007A00846080937A0080917A00826080939F
:1006F0007A0080917A00816080937A0080917A00FC
:10070000806880937A001092C100E0913D01F091E1
:100710003E0182E08083E0913901F0913A0110823C
:10072000E0913B01F0913C018FEC808310924501F8
:10073000E0914101F091420186E08083E0913F0128
:10074000F0914001808180618083E0913F01F091D0
:100750004001808188608083E0913F01F0914001F9
:10076000808180688083E0913F01F0914001808129
:100770008F7D808361E08091D6010E94D90160E085
:100780008091D8010E94D90161E08DE00E94D901D9
:1007900080E00E94AC012AE0C22ED12CE12CF12C89
:1007A00080E191E00E943A028090D4019090D501BE
:1007B000092C000CAA08BB08B7FE26C0E0912D0149
:1007C000F0912E010190F081E02D6DE28DE291E03B
:1007D000099522273327A901281939094A095B09F4
:1007E00019A2CE0181965C01CA01B901A701960147
:1007F0000E94AA04605DF50162935F012115310535
:100800004105510589F715C0A501940119A2CE0132
:1008100081965C01CA01B901A70196010E94AA0450
:10082000605DF50162935F012115310541055105B8
:1008300089F7C5010E943A0284E291E00E943A02DF
:100840004091D8015091D9015527FA01E255FF4F47
:100850008491FA01E656FF4FB490FA01EA57FF4F30
:100860001491112391F081110E948301E12FF0E096
:10087000EE0FFF1FEE58FF4FA591B491EC91EB21C5
:1008800091E080E021F490E002C090E080E090935D
:10089000D4018093D5018091D2019091D30100972A
:1008A00019F0019731F12CC061E08DE00E94D9016F
:1008B00080E00E94AC018091D4019091D5018130FB
:1008C0009105F1F49093D3018093D2012FB7F8945E
:1008D0008091CA019091CB01A091CC01B091CD0142
:1008E0002FBF8093CE019093CF01A093D001B093FE
:1008F000D10161E08DE00E94D90181E00E94AC014C
:100900000E9415022B013C0188EE882E83E0982E70
:10091000A12CB12C0E941502DC01CB018419950990
:10092000A609B709883E9340A105B10558F0F1E04A
:100930008F1A9108A108B10828EE420E23E0521E3A
:10094000611C711C81149104A104B10419F70E9467
:10095000790126CFA1E21A2EAA1BBB1BFD010DC0F7
:10096000AA1FBB1FEE1FFF1FA217B307E407F5075F
:1009700020F0A21BB30BE40BF50B661F771F881F3B
:10098000991F1A9469F760957095809590959B01D1
:10099000AC01BD01CF010895EE0FFF1F0590F4914A
:1009A000E02D099481E090E0F8940C94D704F89439
:0209B000FFCF77
:1009B2000000000010018C00D900B700CB005701E5
:1009C2000A2056616C7565206F6620427574746FDB
:0809D2006E2009000D0A00006F
:00000001FF
