:100000000C9435000C945D000C945D000C945D0024
:100010000C945D000C945D000C945D000C945D00EC
:100020000C945D000C945D000C945D000C945D00DC
:100030000C945D000C945D000C945D000C945D00CC
:100040000C9424020C945D000C94F2010C94CC01ED
:100050000C945D000C945D000C945D000C945D00AC
:100060000C945D000C945D006E0211241FBECFEF56
:10007000D8E0DEBFCDBF22E0A8E2B1E001C01D9212
:10008000A232B207E1F711E0A0E0B1E0ECEFFAE054
:1000900002C005900D92A832B107D9F710E0C5E370
:1000A000D0E004C02197FE010E944404C433D1076C
:1000B000C9F70E94AD020C947C050C940000CF920D
:1000C000DF92EF92FF920F931F93CF93DF936C0118
:1000D0007A018B01C0E0D0E0CE15DF0589F0D801B0
:1000E0006D918D01D601ED91FC910190F081E02D93
:1000F000C6010995892B11F47E0102C02196ECCF2F
:10010000C701DF91CF911F910F91FF90EF90DF908A
:10011000CF900895FC01918D828D981761F0828DAA
:10012000DF01A80FB11D5D968C91928D9F5F9F732B
:10013000928F90E008958FEF9FEF0895FC01918DCD
:10014000828D981731F0828DE80FF11D858D90E03A
:1001500008958FEF9FEF0895FC01918D228D892FD7
:1001600090E0805C9F4F821B91098F7399270895BF
:1001700089E391E00E94AC0021E0892B09F420E0A2
:10018000822F0895FC01848DDF01A80FB11DA35AB1
:10019000BF4F2C91848D90E001968F739927848FA7
:1001A000A689B7892C93A089B1898C9180648C939E
:1001B000938D848D981306C00288F389E02D808189
:1001C0008F7D80830895EF92FF920F931F93CF93BB
:1001D000DF93EC0181E0888F9B8D8C8D981305C097
:1001E000E889F989808185FD24C0F62E0B8D10E009
:1001F0000F5F1F4F0F731127E02E8C8DE8120CC07C
:100200000FB607FCFACFE889F989808185FFF5CF21
:10021000CE010E94C200F1CF8B8DFE01E80FF11DCF
:10022000E35AFF4FF0820B8FEA89FB89808180625D
:1002300007C0EE89FF896083E889F989808180643D
:10024000808381E090E0DF91CF911F910F91FF902B
:10025000EF900895CF93DF93EC01888D8823C9F048
:10026000EA89FB89808185FD05C0A889B9898C91BF
:1002700086FD0FC00FB607FCF5CF808185FFF2CF5A
:10028000A889B9898C9185FFEDCFCE010E94C2006B
:10029000E7CFDF91CF91089580E090E0892B29F09E
:1002A0000E94B80081110C94000008953FB7F894A3
:1002B0008091290190912A01A0912B01B0912C01EC
:1002C00026B5A89B05C02F3F19F00196A11DB11DB1
:1002D0003FBFBA2FA92F982F8827820F911DA11DEC
:1002E000B11DBC01CD0142E0660F771F881F991F29
:1002F0004A95D1F708958F929F92AF92BF92CF9275
:10030000DF92EF92FF926B017C010E9456014B013C
:100310005C01C114D104E104F104F1F00E94560122
:10032000DC01CB0188199909AA09BB09883E9340D1
:10033000A105B10570F321E0C21AD108E108F10866
:1003400088EE880E83E0981EA11CB11CC114D10454
:10035000E104F10419F7DDCFFF90EF90DF90CF902B
:10036000BF90AF909F908F9008950E947705611580
:10037000710579F0FB0101900020E9F73197AF0199
:10038000461B570BDC01ED91FC910280F381E02DBF
:10039000099480E090E008951F920F920FB60F929B
:1003A00011242F933F934F935F936F937F938F937A
:1003B0009F93AF93BF93EF93FF9389E391E00E94E4
:1003C000C200FF91EF91BF91AF919F918F917F916B
:1003D0006F915F914F913F912F910F900FBE0F90B2
:1003E0001F9018951F920F920FB60F9211242F9302
:1003F0008F939F93EF93FF93E0914901F0914A010E
:100400008081E0914F01F091500182FD12C09081F6
:10041000809152018F5F8F7320915301821751F0A9
:10042000E0915201F0E0E75CFE4F958F809352011E
:1004300001C08081FF91EF919F918F912F910F903B
:100440000FBE0F901F9018951F920F920FB60F922C
:1004500011242F933F938F939F93AF93BF938091DA
:100460002D0190912E01A0912F01B091300130917A
:10047000280123E0230F2D3720F40196A11DB11D83
:1004800005C026E8230F0296A11DB11D2093280167
:1004900080932D0190932E01A0932F01B0933001F2
:1004A0008091290190912A01A0912B01B0912C01FA
:1004B0000196A11DB11D8093290190932A01A0935B
:1004C0002B01B0932C01BF91AF919F918F913F91E0
:1004D0002F910F900FBE0F901F901895E9E3F1E058
:1004E0001382128288EE93E0A0E0B0E084839583CB
:1004F000A683B7838AE091E09183808385EC90E0C6
:100500009587848784EC90E09787868780EC90E0DD
:10051000918B808B81EC90E0938B828B82EC90E0CE
:10052000958B848B86EC90E0978B868B118E128E48
:10053000138E148EE6EDF1E0168217821086118676
:10054000128613861486158616861786108A118AD7
:10055000128A138A148A158A0895CF93DF93CDB730
:10056000DEB7A1970FB6F894DEBF0FBECDBF78946B
:1005700084B5826084BD84B5816084BD85B58260A8
:1005800085BD85B5816085BD80916E008160809359
:100590006E001092810080918100826080938100C2
:1005A00080918100816080938100809180008160D2
:1005B000809380008091B10084608093B10080912D
:1005C000B00081608093B00080917A008460809355
:1005D0007A0080917A00826080937A0080917A001C
:1005E000816080937A0080917A00806880937A009D
:1005F0001092C10010921A0210921B0210921C025B
:1006000010921D021092D8011092D9011092DA01B5
:100610001092DB0168EB7BE080E090E00E947B01C0
:1006200089E391E09093190280931802E0914901C7
:10063000F0914A0102E00083E0914501F09146010A
:100640001082E0914701F091480180E1808310928F
:100650005101E0914D01F0914E0116E01083E091BF
:100660004B01F0914C01808180618083E0914B01CE
:10067000F0914C01808188608083E0914B01F09182
:100680004C01808180688083E0914B01F0914C01A6
:1006900080818F7D80832FB7F89480912D01909178
:1006A0002E01A0912F01B09130012FBF8093D8016E
:1006B0009093D901A093DA01B093DB0166E171E078
:1006C00080911802909119020E94B7016AE070E0CF
:1006D00080E090E00E947B0181E08093EC01E0915A
:1006E0004901F0914A010083E0914501F0914601F2
:1006F0001082E0914701F09148018FEC80831092C5
:100700005101E0914D01F0914E011083E0914B01B8
:10071000F0914C01808180618083E0914B01F091E8
:100720004C01808188608083E0914B01F0914C0105
:10073000808180688083E0914B01F0914C01808141
:100740008F7D808386E090E00E944A04FC019093B4
:1007500032018093310183E391E024E630E030936D
:1007600034012093330128EE33E0318320839093CA
:10077000360180933501F383E283909338018093AF
:100780003701F583E4838AE0882E912CA12CB12CCB
:10079000C0903301D09034018FEFC81AD80AD0929C
:1007A0003401C09233010D2C000CEE08FF08F7FE57
:1007B00026C0E0913901F0913A010190F081E02DDD
:1007C0006DE289E391E0099522273327A9012C19CD
:1007D0003D094E095F0919A28E010F5D1F4FCA0125
:1007E000B901A50194010E942204605DF8016293A1
:1007F0008F01211531054105510589F715C0A70164
:10080000960119A28E010F5D1F4FCA01B901A50102
:1008100094010E942204605DF80162938F0121150A
:1008200031054105510589F7B80189E391E00E943E
:10083000B70165E271E089E391E00E94B7010E948F
:100840004C01A6CFA1E21A2EAA1BBB1BFD010DC0B5
:10085000AA1FBB1FEE1FFF1FA217B307E407F50770
:1008600020F0A21BB30BE40BF50B661F771F881F4C
:10087000991F1A9469F760957095809590959B01E2
:10088000AC01BD01CF010895EE0FFF1F0590F4915B
:10089000E02D0994CF93DF938230910510F482E02C
:1008A00090E0E0912002F091210220E030E0C0E0F1
:1008B000D0E0309711F14081518148175907C0F0BD
:1008C0004817590761F482819381209719F09B831F
:1008D0008A832BC0909321028093200226C0211589
:1008E000310519F04217530718F49A01BE01DF01D0
:1008F000EF010280F381E02DDCCF2115310509F1F4
:10090000281B390B2430310590F412968D919C915F
:1009100013976115710521F0FB019383828304C055
:100920009093210280932002FD01329644C0FD0184
:10093000E20FF31F81939193225031092D933C9341
:100940003AC020911E0230911F02232B41F42091C6
:1009500002013091030130931F0220931E02209167
:100960000001309101012115310541F42DB73EB749
:100970004091040150910501241B350BE0911E02AA
:10098000F0911F02E217F307A0F42E1B3F0B28176C
:10099000390778F0AC014E5F5F4F2417350748F0F8
:1009A0004E0F5F1F50931F0240931E02819391933D
:1009B00002C0E0E0F0E0CF01DF91CF9108950F9306
:1009C0001F93CF93DF93009709F48CC0FC013297FB
:1009D000138212820091200210912102011511054B
:1009E00081F420813181820F931F20911E0230916A
:1009F0001F022817390779F5F0931F02E0931E02B2
:100A000071C0D80140E050E0AE17BF0750F4129615
:100A10002D913C911397AD012115310509F1D901B3
:100A2000F3CF9D01DA013383228360817181860FC8
:100A3000971F8217930769F4EC0128813981260FEB
:100A4000371F2E5F3F4F318320838A819B819383A1
:100A50008283452B29F4F0932102E093200242C0C7
:100A60001396FC93EE931297ED01499159919E01D3
:100A7000240F351FE217F30771F480819181840FF1
:100A8000951F029611969C938E9382819381139663
:100A90009C938E931297E0E0F0E0D80112968D912E
:100AA0009C911397009719F0F8018C01F6CF8D9166
:100AB0009C9198012E5F3F4F820F931F20911E0241
:100AC00030911F022817390769F4309729F41092E2
:100AD00021021092200202C01382128210931F0280
:100AE00000931E02DF91CF911F910F91089581E035
:0C0AF00090E0F8940C947C05F894FFCF83
:100AFC0000002202800000000000E3005F00AC0058
:100B0C008A009E002A01564D4450565F317C315F5D
:080B1C00564D4450560D0A002D
:00000001FF
