:100000000C9435000C945D000C945D000C945D0024
:100010000C945D000C945D000C945D000C945D00EC
:100020000C945D000C945D000C945D000C945D00DC
:100030000C945D000C945D000C945D000C945D00CC
:100040000C94AC020C945D000C947A020C94540253
:100050000C945D000C945D000C945D000C945D00AC
:100060000C945D000C945D00F60211241FBECFEFCE
:10007000D8E0DEBFCDBF22E0A2E4B1E001C01D9216
:10008000A633B207E1F711E0A0E0B1E0E0E6FBE063
:1000900002C005900D92A234B107D9F710E0C5E374
:1000A000D0E004C02197FE010E947604C433D1073A
:1000B000C9F70E9435030C94AE050C940000CF9252
:1000C000DF92EF92FF920F931F93CF93DF936C0118
:1000D0007A018B01C0E0D0E0CE15DF0589F0D801B0
:1000E0006D918D01D601ED91FC910190F081E02D93
:1000F000C6010995892B11F47E0102C02196ECCF2F
:10010000C701DF91CF911F910F91FF90EF90DF908A
:10011000CF900895FC01918D828D981761F0828DAA
:10012000DF01A80FB11D5D968C91928D9F5F9F732B
:10013000928F90E008958FEF9FEF0895FC01918DCD
:10014000828D981731F0828DE80FF11D858D90E03A
:1001500008958FEF9FEF0895FC01918D228D892FD7
:1001600090E0805C9F4F821B91098F7399270895BF
:100170008DE491E00E94AC0021E0892B09F420E09D
:10018000822F0895FC01848DDF01A80FB11DA35AB1
:10019000BF4F2C91848D90E001968F739927848FA7
:1001A000A689B7892C93A089B1898C9180648C939E
:1001B000938D848D981306C00288F389E02D808189
:1001C0008F7D80830895EF92FF920F931F93CF93BB
:1001D000DF93EC0181E0888F9B8D8C8D981305C097
:1001E000E889F989808185FD24C0F62E0B8D10E009
:1001F0000F5F1F4F0F731127E02E8C8DE8120CC07C
:100200000FB607FCFACFE889F989808185FFF5CF21
:10021000CE010E94C200F1CF8B8DFE01E80FF11DCF
:10022000E35AFF4FF0820B8FEA89FB89808180625D
:1002300007C0EE89FF896083E889F989808180643D
:10024000808381E090E0DF91CF911F910F91FF902B
:10025000EF900895CF93DF93EC01888D8823C9F048
:10026000EA89FB89808185FD05C0A889B9898C91BF
:1002700086FD0FC00FB607FCF5CF808185FFF2CF5A
:10028000A889B9898C9185FFEDCFCE010E94C2006B
:10029000E7CFDF91CF91089580E090E0892B29F09E
:1002A0000E94B80081110C94000008953FB7F894A3
:1002B0008091430190914401A0914501B091460184
:1002C00026B5A89B05C02F3F19F00196A11DB11DB1
:1002D0003FBFBA2FA92F982F8827820F911DA11DEC
:1002E000B11DBC01CD0142E0660F771F881F991F29
:1002F0004A95D1F708958F929F92AF92BF92CF9275
:10030000DF92EF92FF926B017C010E9456014B013C
:100310005C01C114D104E104F104F1F00E94560122
:10032000DC01CB0188199909AA09BB09883E9340D1
:10033000A105B10570F321E0C21AD108E108F10866
:1003400088EE880E83E0981EA11CB11CC114D10454
:10035000E104F10419F7DDCFFF90EF90DF90CF902B
:10036000BF90AF909F908F9008950E94A90561154E
:10037000710579F0FB0101900020E9F73197AF0199
:10038000461B570BDC01ED91FC910280F381E02DBF
:10039000099480E090E008958F929F92AF92BF926F
:1003A000CF92DF92EF92FF920F931F93CF93DF9341
:1003B000CDB7DEB7A1970FB6F894DEBF0FBECDBFA5
:1003C0006C01990FEE08FF08F7FE33C0E0914D0174
:1003D000F0914E010190F081E02D6DE28DE491E00D
:1003E00009958C0122273327A9012C193D094E09B3
:1003F0005F0919A2CE0181967C019AE0892E912C89
:10040000A12CB12CCA01B901A50194010E94540488
:10041000605DF70162937F012115310541055105AA
:1004200089F7BF018DE491E00E94B701080F191F01
:1004300020C0A701960119A28E010F5D1F4F8AE00F
:10044000C82ED12CE12CF12CCA01B901A7019601CB
:100450000E945404605DF80162938F0121153105FB
:100460004105510589F7BF018DE491E00E94B70174
:100470008C0165E271E08DE491E00E94B701800F8C
:10048000911FA1960FB6F894DEBF0FBECDBFDF91CE
:10049000CF911F910F91FF90EF90DF90CF90BF9081
:1004A000AF909F908F9008951F920F920FB60F926A
:1004B00011242F933F934F935F936F937F938F9369
:1004C0009F93AF93BF93EF93FF938DE491E00E94CE
:1004D000C200FF91EF91BF91AF919F918F917F915A
:1004E0006F915F914F913F912F910F900FBE0F90A1
:1004F0001F9018951F920F920FB60F9211242F93F1
:100500008F939F93EF93FF93E0915D01F0915E01D4
:100510008081E0916301F091640182FD12C09081BD
:10052000809166018F5F8F7320916701821751F070
:10053000E0916601F0E0E35BFE4F958F80936601EA
:1005400001C08081FF91EF919F918F912F910F902A
:100550000FBE0F901F9018951F920F920FB60F921B
:1005600011242F933F938F939F93AF93BF938091C9
:10057000470190914801A0914901B0914A01309101
:10058000420123E0230F2D3720F40196A11DB11D58
:1005900005C026E8230F0296A11DB11D209342013C
:1005A0008093470190934801A0934901B0934A0179
:1005B0008091430190914401A0914501B091460181
:1005C0000196A11DB11D8093430190934401A09316
:1005D0004501B0934601BF91AF919F918F913F919B
:1005E0002F910F900FBE0F901F901895EDE4F1E042
:1005F0001382128288EE93E0A0E0B0E084839583BA
:10060000A683B7838AE091E09183808385EC90E0B4
:100610009587848784EC90E09787868780EC90E0CC
:10062000918B808B81EC90E0938B828B82EC90E0BD
:10063000958B848B86EC90E0978B868B118E128E37
:10064000138E148EEAEEF1E0168217821086118660
:10065000128613861486158616861786108A118AC6
:10066000128A138A148A158A0895789484B5826050
:1006700084BD84B5816084BD85B5826085BD85B546
:10068000816085BD80916E00816080936E001092C4
:10069000810080918100826080938100809181003F
:1006A00081608093810080918000816080938000D0
:1006B0008091B10084608093B1008091B00081602E
:1006C0008093B00080917A00846080937A0080915A
:1006D0007A00826080937A0080917A0081608093B2
:1006E0007A0080917A00806880937A001092C1002D
:1006F00010922E0210922F021092300210923102AC
:100700001092EC011092ED011092EE011092EF01A7
:1007100068EB7BE080E090E00E947B018DE491E05B
:1007200090932D0280932C02E0915D01F0915E0187
:10073000D2E0D083E0915901F0915A011082E0910A
:100740005B01F0915C0180E1808310926501E09192
:100750006101F0916201C6E0C083E0915F01F09118
:100760006001808180618083E0915F01F091600190
:10077000808188608083E0915F01F09160018081D9
:1007800080688083E0915F01F091600180818F7DBE
:1007900080832FB7F8948091470190914801A091F0
:1007A0004901B0914A012FBF8093EC019093ED0174
:1007B000A093EE01B093EF0166E171E080912C020D
:1007C00090912D020E94B7016AE070E080E090E015
:1007D0000E947B0181E080930002E0915D01F09135
:1007E0005E01D083E0915901F0915A011082E091AD
:1007F0005B01F0915C018FEC808310926501E091C8
:100800006101F0916201C083E0915F01F0916001AC
:10081000808180618083E0915F01F091600180813F
:1008200088608083E0915F01F09160018081806841
:100830008083E0915F01F091600180818F7D8083F2
:1008400084E090E00E947C0490934C0180934B01E3
:1008500024E630E0FC01318320839383828368E2C5
:1008600071E08DE491E00E94B70165E271E08DE4F2
:1008700091E00E94B7018BE491E00E94CC0165E316
:1008800071E08DE491E00E94B70165E271E08DE4D2
:1008900091E00E94B70180914B0190914C010E9420
:1008A000CC010E944C01DBCFA1E21A2EAA1BBB1B7C
:1008B000FD010DC0AA1FBB1FEE1FFF1FA217B3072C
:1008C000E407F50720F0A21BB30BE40BF50B661F42
:1008D000771F881F991F1A9469F760957095809506
:1008E00090959B01AC01BD01CF010895EE0FFF1F54
:1008F0000590F491E02D0994CF93DF938230910518
:1009000010F482E090E0E0913402F091350220E0B2
:1009100030E0C0E0D0E0309711F1408151814817BC
:100920005907C0F04817590761F4828193812097D5
:1009300019F09B838A832BC09093350280933402F5
:1009400026C02115310519F04217530718F49A01F2
:10095000BE01DF01EF010280F381E02DDCCF211524
:10096000310509F1281B390B2430310590F412961A
:100970008D919C9113976115710521F0FB01938373
:10098000828304C09093350280933402FD01329635
:1009900044C0FD01E20FF31F81939193225031096E
:1009A0002D933C933AC02091320230913302232B95
:1009B00041F42091020130910301309333022093DE
:1009C000320220910001309101012115310541F4DD
:1009D0002DB73EB74091040150910501241B350B02
:1009E000E0913202F0913302E217F307A0F42E1BDC
:1009F0003F0B2817390778F0AC014E5F5F4F241783
:100A0000350748F04E0F5F1F509333024093320278
:100A10008193919302C0E0E0F0E0CF01DF91CF91AC
:100A200008950F931F93CF93DF93009709F48CC021
:100A3000FC01329713821282009134021091350228
:100A40000115110581F420813181820F931F2091BE
:100A50003202309133022817390779F5F0933302C7
:100A6000E093320271C0D80140E050E0AE17BF07FA
:100A700050F412962D913C911397AD01211531053B
:100A800009F1D901F3CF9D01DA013383228360811B
:100A90007181860F971F8217930769F4EC012881F3
:100AA0003981260F371F2E5F3F4F318320838A8184
:100AB0009B8193838283452B29F4F0933502E09345
:100AC000340242C01396FC93EE931297ED014991C4
:100AD00059919E01240F351FE217F30771F48081AD
:100AE0009181840F951F029611969C938E9382811B
:100AF000938113969C938E931297E0E0F0E0D801D7
:100B000012968D919C911397009719F0F8018C0122
:100B1000F6CF8D919C9198012E5F3F4F820F931FCE
:100B200020913202309133022817390769F4309747
:100B300029F4109235021092340202C013821282FC
:100B40001093330200933202DF91CF911F910F91E6
:100B5000089581E090E0F8940C94AE05F894FFCFEE
:100B600000003602800000000000E3005F00AC00DF
:100B70008A009E002A01564D4450565F317C315FF9
:100B8000564D4450560D0A004164647265737320DB
:100B90006F66206100436F6E74656E74206F66200F
:020BA0006100F2
:107E0000112484B714BE81FFF0D085E080938100F7
:107E100082E08093C00088E18093C10086E0809377
:107E2000C20080E18093C4008EE0C9D0259A86E02C
:107E300020E33CEF91E0309385002093840096BBD3
:107E4000B09BFECF1D9AA8958150A9F7CC24DD24C4
:107E500088248394B5E0AB2EA1E19A2EF3E0BF2EE7
:107E6000A2D0813461F49FD0082FAFD0023811F036
:107E7000013811F484E001C083E08DD089C08234E0
:107E800011F484E103C0853419F485E0A6D080C0E4
:107E9000853579F488D0E82EFF2485D0082F10E0AE
:107EA000102F00270E291F29000F111F8ED06801E7
:107EB0006FC0863521F484E090D080E0DECF843638
:107EC00009F040C070D06FD0082F6DD080E0C81688
:107ED00080E7D80618F4F601B7BEE895C0E0D1E017
:107EE00062D089930C17E1F7F0E0CF16F0E7DF06D8
:107EF00018F0F601B7BEE89568D007B600FCFDCFD4
:107F0000A601A0E0B1E02C9130E011968C91119780
:107F100090E0982F8827822B932B1296FA010C0160
:107F200087BEE89511244E5F5F4FF1E0A038BF0790
:107F300051F7F601A7BEE89507B600FCFDCF97BE46
:107F4000E89526C08437B1F42ED02DD0F82E2BD052
:107F50003CD0F601EF2C8F010F5F1F4F84911BD097
:107F6000EA94F801C1F70894C11CD11CFA94CF0C13
:107F7000D11C0EC0853739F428D08EE10CD085E9AC
:107F80000AD08FE07ACF813511F488E018D01DD067
:107F900080E101D065CF982F8091C00085FFFCCF94
:107FA0009093C60008958091C00087FFFCCF809118
:107FB000C00084FD01C0A8958091C6000895E0E648
:107FC000F0E098E1908380830895EDDF803219F02E
:107FD00088E0F5DFFFCF84E1DECF1F93182FE3DFCA
:107FE0001150E9F7F2DF1F91089580E0E8DFEE27F6
:047FF000FF270994CA
:027FFE00040479
:0400000300007E007B
:00000001FF