:100000000C9435000C945D000C945D000C945D0024
:100010000C945D000C945D000C945D000C945D00EC
:100020000C945D000C945D000C945D000C945D00DC
:100030000C945D000C945D000C945D000C945D00CC
:100040000C945E030C945D000C942C030C9406033A
:100050000C945D000C945D000C945D000C945D00AC
:100060000C945D000C945D00A80311241FBECFEF1B
:10007000D8E0DEBFCDBF23E0AEE2B2E001C01D920A
:10008000A032B207E1F712E0A0E0B1E0EEE8FFE055
:1000900002C005900D92AE32B107D9F710E0C5E36A
:1000A000D0E004C02197FE010E94B305C433D107FC
:1000B000C9F70E94E7030C94C5070C940000CF9287
:1000C000DF92EF92FF920F931F93CF93DF936C0118
:1000D0007A018B01C0E0D0E0CE15DF0589F0D801B0
:1000E0006D918D01D601ED91FC910190F081E02D93
:1000F000C6010995892B11F47E0102C02196ECCF2F
:10010000C701DF91CF911F910F91FF90EF90DF908A
:10011000CF900895FC01918D828D981761F0828DAA
:10012000DF01A80FB11D5D968C91928D9F5F9F732B
:10013000928F90E008958FEF9FEF0895FC01918DCD
:10014000828D981731F0828DE80FF11D858D90E03A
:1001500008958FEF9FEF0895FC01918D228D892FD7
:1001600090E0805C9F4F821B91098F7399270895BF
:1001700087E392E00E94AC0021E0892B09F420E0A3
:10018000822F0895FC01848DDF01A80FB11DA35AB1
:10019000BF4F2C91848D90E001968F739927848FA7
:1001A000A689B7892C93A089B1898C9180648C939E
:1001B000938D848D981306C00288F389E02D808189
:1001C0008F7D80830895EF92FF920F931F93CF93BB
:1001D000DF93EC0181E0888F9B8D8C8D981305C097
:1001E000E889F989808185FD24C0F62E0B8D10E009
:1001F0000F5F1F4F0F731127E02E8C8DE8120CC07C
:100200000FB607FCFACFE889F989808185FFF5CF21
:10021000CE010E94C200F1CF8B8DFE01E80FF11DCF
:10022000E35AFF4FF0820B8FEA89FB89808180625D
:1002300007C0EE89FF896083E889F989808180643D
:10024000808381E090E0DF91CF911F910F91FF902B
:10025000EF900895CF93DF93EC01888D8823C9F048
:10026000EA89FB89808185FD05C0A889B9898C91BF
:1002700086FD0FC00FB607FCF5CF808185FFF2CF5A
:10028000A889B9898C9185FFEDCFCE010E94C2006B
:10029000E7CFDF91CF91089580E090E0892B29F09E
:1002A0000E94B80081110C94000008953FB7F894A3
:1002B00080912F0290913002A0913102B0913202D0
:1002C00026B5A89B05C02F3F19F00196A11DB11DB1
:1002D0003FBFBA2FA92F982F8827820F911DA11DEC
:1002E000B11DBC01CD0142E0660F771F881F991F29
:1002F0004A95D1F708958F929F92AF92BF92CF9275
:10030000DF92EF92FF926B017C010E9456014B013C
:100310005C01C114D104E104F104F1F00E94560122
:10032000DC01CB0188199909AA09BB09883E9340D1
:10033000A105B10570F321E0C21AD108E108F10866
:1003400088EE880E83E0981EA11CB11CC114D10454
:10035000E104F10419F7DDCFFF90EF90DF90CF902B
:10036000BF90AF909F908F9008950E94B007611545
:10037000710579F0FB0101900020E9F73197AF0199
:10038000461B570BDC01ED91FC910280F381E02DBF
:10039000099480E090E00895CF93DF93FC014481BD
:1003A00055816081718187E392E00E945F00EC01DA
:1003B00066E471E087E392E00E94B7018C0F9D1F15
:1003C000DF91CF9108950F931F93CF93DF93EC01AB
:1003D00088819981009729F02A813B812617370768
:1003E00088F48B016F5F7F4F0E94E606009761F0F3
:1003F000998388831B830A832C813D81232B11F4ED
:10040000FC01108281E001C080E0DF91CF911F915B
:100410000F910895CF93DF93EC0188819981009724
:1004200011F00E944E06198218821D821C821B82C6
:100430001A82DF91CF910895EF92FF920F931F934D
:10044000CF93DF93EC017B0161157105F1F0FB01A6
:1004500001900020E9F73197E61BF70B0C811D8115
:100460003097B1F00E0F1F1FB8010E94E3018823DF
:1004700061F0288139818C819D81B701820F931FA2
:100480000E94BE071D830C8303C0CE010E940A0296
:10049000CE01DF91CF911F910F91FF90EF900895C2
:1004A000EF92FF920F931F93CF93DF93EC0119828A
:1004B00018821B821A821D821C826115710521F12E
:1004C0008B01FB0101900020E9F731977F01E61ACB
:1004D000F70AB7010E94E301811109C0CE01DF9143
:1004E000CF911F910F91FF90EF900C940A02FD8223
:1004F000EC82B80188819981DF91CF911F910F9192
:10050000FF90EF900C94BE07DF91CF911F910F9158
:10051000FF90EF900895EF92FF920F931F93CF9368
:10052000DF93EC01FB0186179707B9F00081118179
:100530000115110539F0E480F580B7010E94E3014F
:10054000811104C0CE010E940A0207C0FD82EC8224
:10055000B801888199810E94BE07CE01DF91CF91B9
:100560001F910F91FF90EF900895FC018081918180
:100570000C944E06CF93DF9300D000D000D0CDB7BF
:10058000DEB71A8219821C821B821E821D82CE0156
:1005900001960E948B0262E271E0CE0101960E94F8
:1005A0001C020E94CC01CE0101960E94B502269643
:1005B0000FB6F894DEBF0FBECDBFDF91CF91089587
:1005C000CF93DF9300D000D000D0CDB7DEB71A8232
:1005D00019821C821B821E821D82CE0101960E94FE
:1005E0008B026BE271E0CE0101960E941C020E9418
:1005F000CC01CE0101960E94B50226960FB6F89462
:10060000DEBF0FBECDBFDF91CF9108951F920F9235
:100610000FB60F9211242F933F934F935F936F93D5
:100620007F938F939F93AF93BF93EF93FF9387E352
:1006300092E00E94C200FF91EF91BF91AF919F9114
:100640008F917F916F915F914F913F912F910F907B
:100650000FBE0F901F9018951F920F920FB60F921A
:1006600011242F938F939F93EF93FF93E091470271
:10067000F09148028081E0914D02F0914E0282FD9E
:1006800012C09081809150028F5F8F732091510230
:10069000821751F0E0915002F0E0E95CFD4F958F38
:1006A0008093500201C08081FF91EF919F918F91C3
:1006B0002F910F900FBE0F901F9018951F920F92C1
:1006C0000FB60F9211242F933F938F939F93AF9365
:1006D000BF938091330290913402A0913502B09182
:1006E000360230912E0223E0230F2D3720F401969D
:1006F000A11DB11D05C026E8230F0296A11DB11D45
:1007000020932E028093330290933402A0933502FB
:10071000B093360280912F0290913002A091310265
:10072000B09132020196A11DB11D80932F029093CA
:100730003002A0933102B0933202BF91AF919F91EA
:100740008F913F912F910F900FBE0F901F90189592
:10075000E7E3F2E01382128288EE93E0A0E0B0E0DB
:1007600084839583A683B78386E191E09183808318
:1007700085EC90E09587848784EC90E09787868766
:1007800080EC90E0918B808B81EC90E0938B828B5E
:1007900082EC90E0958B848B86EC90E0978B868B37
:1007A000118E128E138E148EE4EDF2E016821782F3
:1007B000108611861286138614861586168617866D
:1007C000108A118A128A138A148A158A0895CF937F
:1007D000DF93CDB7DEB72A970FB6F894DEBF0FBE12
:1007E000CDBF789484B5826084BD84B5816084BDBA
:1007F00085B5826085BD85B5816085BD80916E00BF
:10080000816080936E0010928100809181008260EF
:10081000809381008091810081608093810080912C
:1008200080008160809380008091B100846080931B
:10083000B1008091B00081608093B00080917A0017
:10084000846080937A0080917A00826080937A003D
:1008500080917A00816080937A0080917A0080682C
:1008600080937A001092C10010921803109219031D
:1008700010921A0310921B031092D6021092D70204
:100880001092D8021092D90268EB7BE080E090E0F1
:100890000E947B0187E392E09093170380931603F5
:1008A000E0914702F091480202E00083E0914302A8
:1008B000F09144021082E0914502F091460280E1FD
:1008C000808310924F02E0914B02F0914C0216E0AF
:1008D0001083E0914902F0914A0280818061808317
:1008E000E0914902F0914A02808188608083E09122
:1008F0004902F0914A02808180688083E091490238
:10090000F0914A0280818F7D80832FB7F894809187
:10091000330290913402A0913502B09136022FBF7C
:100920008093D6029093D702A093D802B093D902B5
:1009300067E371E080911603909117030E94B7015D
:100940006AE070E080E090E00E947B0181E08093AB
:10095000EA02E0914702F09148020083E0914302ED
:10096000F09144021082E0914502F09146028FEC32
:10097000808310924F02E0914B02F0914C02108361
:10098000E0914902F0914A02808180618083E09188
:100990004902F0914A02808188608083E091490297
:1009A000F0914A02808180688083E0914902F09151
:1009B0004A0280818F7D808380E1C82E81E0D82E1D
:1009C0009AE0E92E91E0F92EDA86C98669E471E0B1
:1009D000CE0101960E945002BE016F5F7F4FCE0193
:1009E00009960E94E002CE0101960E94B50282E0C3
:1009F00090E00E94B9058C01FC01D182C0826FE5B4
:100A000071E0CE0101960E945002BE016F5F7F4FE0
:100A1000C8010E94E002CE0101960E94B50265E87D
:100A200071E0CE0101960E945002BE016F5F7F4FC0
:100A3000CE0109960E94E002CE0101960E94B50205
:100A4000F886EF8269E471E0CE0101960E945002BF
:100A5000BE016F5F7F4FCE0107960E94BA02CE01A2
:100A600001960E94B50282E090E00E94B9058C01D7
:100A7000FC01F182E08262EB71E0CE0101960E94FE
:100A80005002BE016F5F7F4FC8010E94BA02CE01C3
:100A900001960E94B50265ED71E0CE0101960E94BB
:100AA0005002BE016F5F7F4FCE0107960E94BA02CF
:100AB000CE0101960E94B5026EEF71E0CE01019663
:100AC0000E945002BE016F5F7F4FCE0107960E94C9
:100AD000BA02CE0101960E94B5026DE172E087E391
:100AE00092E00E94B70166E471E087E392E00E9421
:100AF000B7010E944C0168CF2F923F924F925F92B4
:100B00006F927F928F929F92AF92BF92CF92DF921D
:100B1000EF92FF920F931F93CF93DF93CDB7DEB782
:100B2000CA1BDB0B0FB6F894DEBF0FBECDBF099416
:100B30002A88398848885F846E847D848C849B846D
:100B4000AA84B984C884DF80EE80FD800C811B817B
:100B5000AA81B981CE0FD11D0FB6F894DEBF0FBEAA
:100B6000CDBFED010895EE0FFF1F0590F491E02D2C
:100B70000994CF93DF938230910510F482E090E0E6
:100B8000E0911E03F0911F0320E030E0C0E0D0E0D0
:100B9000309711F14081518148175907C0F048172B
:100BA000590761F482819381209719F09B838A838E
:100BB0002BC090931F0380931E0326C0211531057F
:100BC00019F04217530718F49A01BE01DF01EF0133
:100BD0000280F381E02DDCCF2115310509F1281BBE
:100BE000390B2430310590F412968D919C91139716
:100BF0006115710521F0FB019383828304C09093FA
:100C00001F0380931E03FD01329644C0FD01E20FD5
:100C1000F31F81939193225031092D933C933AC055
:100C200020911C0330911D03232B41F420910201DC
:100C30003091030130931D0320931C032091000188
:100C4000309101012115310541F42DB73EB7409196
:100C5000040150910501241B350BE0911C03F09118
:100C60001D03E217F307A0F42E1B3F0B28173907CB
:100C700078F0AC014E5F5F4F2417350748F04E0FF8
:100C80005F1F50931D0340931C038193919302C0F7
:100C9000E0E0F0E0CF01DF91CF9108950F931F9333
:100CA000CF93DF93009709F48CC0FC013297138235
:100CB000128200911E0310911F030115110581F48A
:100CC00020813181820F931F20911C0330911D03DD
:100CD0002817390779F5F0931D03E0931C0371C0C1
:100CE000D80140E050E0AE17BF0750F412962D91A6
:100CF0003C911397AD012115310509F1D901F3CFCD
:100D00009D01DA013383228360817181860F971FF1
:100D10008217930769F4EC0128813981260F371F68
:100D20002E5F3F4F318320838A819B81938382830F
:100D3000452B29F4F0931F03E0931E0342C0139642
:100D4000FC93EE931297ED01499159919E01240F66
:100D5000351FE217F30771F480819181840F951F8D
:100D6000029611969C938E938281938113969C9305
:100D70008E931297E0E0F0E0D80112968D919C914D
:100D80001397009719F0F8018C01F6CF8D919C9183
:100D900098012E5F3F4F820F931F20911C033091CB
:100DA0001D032817390769F4309729F410921F039F
:100DB00010921E0302C01382128210931D0300932F
:100DC0001C03DF91CF911F910F910895A0E0B0E037
:100DD000ECEEF6E00C948005EC01009721F4CB01D9
:100DE0000E94B905B8C0FC01E60FF71F9C01225014
:100DF0003109E217F30708F4ACC0D9010D911C9139
:100E0000119706171707B0F00530110508F49FC0B9
:100E1000C80104978617970708F499C00250110972
:100E2000061B170B019311936D937C93CF010E94C6
:100E30004E068DC05B01A01AB10A4C01800E911EB6
:100E4000A0911E03B0911F0340E050E0E12CF12C73
:100E5000109709F44AC0A815B905D1F56D907C909A
:100E60001197630182E0C80ED11CCA14DB0480F123
:100E7000A3014A195B096A0182E0C80ED11C1296CF
:100E8000BC9012971396AC91B5E0CB16D10440F00C
:100E9000B282A38351834083D9016D937C930AC0AE
:100EA0000E5F1F4FC301800F911FF9019183808353
:100EB000EB2DFA2FE114F10431F0D7011396FC93D6
:100EC000EE93129744C0F0931F03E0931E033FC0BC
:100ED0008D919C9111974817590708F4AC017D0139
:100EE00012960D90BC91A02DB3CF80911C039091D0
:100EF0001D0388159905E1F446175707C8F480913A
:100F0000000190910101009741F48DB79EB7409187
:100F1000040150910501841B950BE817F907C8F4EB
:100F2000F0931D03E0931C03F901718360830FC0EC
:100F3000CB010E94B9057C01009759F0A801BE01C0
:100F40000E94B507CE010E944E06C70104C0CE0123
:100F500002C080E090E0CDB7DEB7EEE00C949C05D7
:100F600081E090E0F8940C94C507FB01DC0102C01D
:100F700001900D9241505040D8F70895FB01DC01DB
:0E0F800001900D920020E1F70895F894FFCF44
:100F8E0000002003800000000000BA0200000000F4
:100F9E00E00200000000E3005F00AC008A009E004B
:100FAE002A0166726F6D20446F670066726F6D2046
:100FBE00616E696D616C00564D4450565F317C31E7
:100FCE005F564D4450560D0A005072696E7420677C
:100FDE00656E6572616C2063617365202D2D0070E6
:100FEE006F696E74657220616E696D616C207368D5
:100FFE006F772077697468206E6577206F626A65F7
:10100E0063742D2D0067656E6572616C20206164BE
:10101E0064726573732061667465722072656173A4
:10102E0069676E696E67206D656D6F7279202D2D03
:10103E002000706F696E74657220446F672073684C
:10104E006F772077697468206E6577206F626A65A6
:10105E0063742D2D0067656E6572616C2020446F80
:10106E0067206166746572207265617369676E6967
:10107E006E67206D656D6F7279202D2D2000616673
:10108E0074657220646966666572656E6365206953
:10109E006E207661726961626C652D2D00232323AB
:0E10AE00232323232323232323232323000090
:107E0000112484B714BE81FFF0D085E080938100F7
:107E100082E08093C00088E18093C10086E0809377
:107E2000C20080E18093C4008EE0C9D0259A86E02C
:107E300020E33CEF91E0309385002093840096BBD3
:107E4000B09BFECF1D9AA8958150A9F7CC24DD24C4
:107E500088248394B5E0AB2EA1E19A2EF3E0BF2EE7
:107E6000A2D0813461F49FD0082FAFD0023811F036
:107E7000013811F484E001C083E08DD089C08234E0
:107E800011F484E103C0853419F485E0A6D080C0E4
:107E9000853579F488D0E82EFF2485D0082F10E0AE
:107EA000102F00270E291F29000F111F8ED06801E7
:107EB0006FC0863521F484E090D080E0DECF843638
:107EC00009F040C070D06FD0082F6DD080E0C81688
:107ED00080E7D80618F4F601B7BEE895C0E0D1E017
:107EE00062D089930C17E1F7F0E0CF16F0E7DF06D8
:107EF00018F0F601B7BEE89568D007B600FCFDCFD4
:107F0000A601A0E0B1E02C9130E011968C91119780
:107F100090E0982F8827822B932B1296FA010C0160
:107F200087BEE89511244E5F5F4FF1E0A038BF0790
:107F300051F7F601A7BEE89507B600FCFDCF97BE46
:107F4000E89526C08437B1F42ED02DD0F82E2BD052
:107F50003CD0F601EF2C8F010F5F1F4F84911BD097
:107F6000EA94F801C1F70894C11CD11CFA94CF0C13
:107F7000D11C0EC0853739F428D08EE10CD085E9AC
:107F80000AD08FE07ACF813511F488E018D01DD067
:107F900080E101D065CF982F8091C00085FFFCCF94
:107FA0009093C60008958091C00087FFFCCF809118
:107FB000C00084FD01C0A8958091C6000895E0E648
:107FC000F0E098E1908380830895EDDF803219F02E
:107FD00088E0F5DFFFCF84E1DECF1F93182FE3DFCA
:107FE0001150E9F7F2DF1F91089580E0E8DFEE27F6
:047FF000FF270994CA
:027FFE00040479
:0400000300007E007B
:00000001FF