:100000000C9435000C945D000C945D000C945D0024
:100010000C945D000C945D000C945D000C945D00EC
:100020000C945D000C945D000C945D000C945D00DC
:100030000C945D000C945D000C945D000C945D00CC
:100040000C9424020C945D000C94F2010C94CC01ED
:100050000C945D000C945D000C945D000C945D00AC
:100060000C945D000C945D006E0211241FBECFEF56
:10007000D8E0DEBFCDBF22E0A6E5B1E001C01D9211
:10008000A035B207E1F711E0A0E0B1E0E4E1FBE068
:1000900002C005900D92A635B107D9F710E0C5E36F
:1000A000D0E004C02197FE010E945004C433D10760
:1000B000C9F70E94AD020C9488050C940000CF9201
:1000C000DF92EF92FF920F931F93CF93DF936C0118
:1000D0007A018B01C0E0D0E0CE15DF0589F0D801B0
:1000E0006D918D01D601ED91FC910190F081E02D93
:1000F000C6010995892B11F47E0102C02196ECCF2F
:10010000C701DF91CF911F910F91FF90EF90DF908A
:10011000CF900895FC01918D828D981761F0828DAA
:10012000DF01A80FB11D5D968C91928D9F5F9F732B
:10013000928F90E008958FEF9FEF0895FC01918DCD
:10014000828D981731F0828DE80FF11D858D90E03A
:1001500008958FEF9FEF0895FC01918D228D892FD7
:1001600090E0805C9F4F821B91098F7399270895BF
:1001700087E691E00E94AC0021E0892B09F420E0A1
:10018000822F0895FC01848DDF01A80FB11DA35AB1
:10019000BF4F2C91848D90E001968F739927848FA7
:1001A000A689B7892C93A089B1898C9180648C939E
:1001B000938D848D981306C00288F389E02D808189
:1001C0008F7D80830895EF92FF920F931F93CF93BB
:1001D000DF93EC0181E0888F9B8D8C8D981305C097
:1001E000E889F989808185FD24C0F62E0B8D10E009
:1001F0000F5F1F4F0F731127E02E8C8DE8120CC07C
:100200000FB607FCFACFE889F989808185FFF5CF21
:10021000CE010E94C200F1CF8B8DFE01E80FF11DCF
:10022000E35AFF4FF0820B8FEA89FB89808180625D
:1002300007C0EE89FF896083E889F989808180643D
:10024000808381E090E0DF91CF911F910F91FF902B
:10025000EF900895CF93DF93EC01888D8823C9F048
:10026000EA89FB89808185FD05C0A889B9898C91BF
:1002700086FD0FC00FB607FCF5CF808185FFF2CF5A
:10028000A889B9898C9185FFEDCFCE010E94C2006B
:10029000E7CFDF91CF91089580E090E0892B29F09E
:1002A0000E94B80081110C94000008953FB7F894A3
:1002B0008091570190915801A0915901B0915A0134
:1002C00026B5A89B05C02F3F19F00196A11DB11DB1
:1002D0003FBFBA2FA92F982F8827820F911DA11DEC
:1002E000B11DBC01CD0142E0660F771F881F991F29
:1002F0004A95D1F708958F929F92AF92BF92CF9275
:10030000DF92EF92FF926B017C010E9456014B013C
:100310005C01C114D104E104F104F1F00E94560122
:10032000DC01CB0188199909AA09BB09883E9340D1
:10033000A105B10570F321E0C21AD108E108F10866
:1003400088EE880E83E0981EA11CB11CC114D10454
:10035000E104F10419F7DDCFFF90EF90DF90CF902B
:10036000BF90AF909F908F9008950E948305611574
:10037000710579F0FB0101900020E9F73197AF0199
:10038000461B570BDC01ED91FC910280F381E02DBF
:10039000099480E090E008951F920F920FB60F929B
:1003A00011242F933F934F935F936F937F938F937A
:1003B0009F93AF93BF93EF93FF9387E691E00E94E3
:1003C000C200FF91EF91BF91AF919F918F917F916B
:1003D0006F915F914F913F912F910F900FBE0F90B2
:1003E0001F9018951F920F920FB60F9211242F9302
:1003F0008F939F93EF93FF93E0917701F0917801B2
:100400008081E0917D01F0917E0182FD12C090819A
:10041000809180018F5F8F7320918101821751F04D
:10042000E0918001F0E0E959FE4F958F80938001C3
:1004300001C08081FF91EF919F918F912F910F903B
:100440000FBE0F901F9018951F920F920FB60F922C
:1004500011242F933F938F939F93AF93BF938091DA
:100460005B0190915C01A0915D01B0915E013091C2
:10047000560123E0230F2D3720F40196A11DB11D55
:1004800005C026E8230F0296A11DB11D2093560139
:1004900080935B0190935C01A0935D01B0935E013A
:1004A0008091570190915801A0915901B0915A0142
:1004B0000196A11DB11D8093570190935801A093FF
:1004C0005901B0935A01BF91AF919F918F913F9184
:1004D0002F910F900FBE0F901F901895E7E6F1E057
:1004E0001382128288EE93E0A0E0B0E084839583CB
:1004F000A683B7838AE091E09183808385EC90E0C6
:100500009587848784EC90E09787868780EC90E0DD
:10051000918B808B81EC90E0938B828B82EC90E0CE
:10052000958B848B86EC90E0978B868B118E128E48
:10053000138E148EE4E0F2E0168217821086118684
:10054000128613861486158616861786108A118AD7
:10055000128A138A148A158A0895CF93DF93CDB730
:10056000DEB7A1970FB6F894DEBF0FBECDBF78946B
:1005700084B5826084BD84B5816084BD85B58260A8
:1005800085BD85B5816085BD80916E008160809359
:100590006E001092810080918100826080938100C2
:1005A00080918100816080938100809180008160D2
:1005B000809380008091B10084608093B10080912D
:1005C000B00081608093B00080917A008460809355
:1005D0007A0080917A00826080937A0080917A001C
:1005E000816080937A0080917A00806880937A009D
:1005F0001092C100109248021092490210924A02D1
:1006000010924B02109206021092070210920802FA
:100610001092090268EB7BE080E090E00E947B0191
:1006200087E691E09093470280934602E09177013C
:10063000F091780102E00083E0917301F091740180
:100640001082E0917501F091760180E18083109233
:100650007F01E0917B01F0917C0116E01083E09135
:100660007901F0917A01808180618083E091790144
:10067000F0917A01808188608083E0917901F09126
:100680007A01808180688083E0917901F0917A011C
:1006900080818F7D80832FB7F89480915B0190914A
:1006A0005C01A0915D01B0915E012FBF80930602B5
:1006B00090930702A0930802B093090266E171E0EB
:1006C00080914602909147020E94B7016AE070E073
:1006D00080E090E00E947B0181E080931A02E0912B
:1006E0007701F09178010083E0917301F09174013A
:1006F0001082E0917501F09176018FEC8083109269
:100700007F01E0917B01F0917C011083E091790100
:10071000F0917A01808180618083E0917901F0918C
:100720007A01808188608083E0917901F0917A017B
:10073000808180688083E0917901F0917A018081E5
:100740008F7D808386E090E00E945604FC019093A8
:10075000600180935F0181E691E024E630E0309310
:1007600062012093610128EE33E03183208390936E
:10077000640180936301F383E28390936601809325
:100780006501F583E4838AE0882E912CA12CB12C9D
:10079000C0906101D09062018FEFC81AD80AD09240
:1007A0006201C09261010D2C000CEE08FF08F7FEFB
:1007B00026C0E0916701F09168010190F081E02D81
:1007C0006DE287E691E0099522273327A9012C19CC
:1007D0003D094E095F0919A28E010F5D1F4FCA0125
:1007E000B901A50194010E942E04605DF801629395
:1007F0008F01211531054105510589F715C0A70164
:10080000960119A28E010F5D1F4FCA01B901A50102
:1008100094010E942E04605DF80162938F012115FE
:1008200031054105510589F7B80187E691E00E943D
:10083000B70165E271E087E691E00E94B70168E2E6
:1008400071E087E691E00E94B70165E271E087E61A
:1008500091E00E94B7010E944C019ACFA1E21A2EAA
:10086000AA1BBB1BFD010DC0AA1FBB1FEE1FFF1F54
:10087000A217B307E407F50720F0A21BB30BE40BA4
:10088000F50B661F771F881F991F1A9469F76095EB
:100890007095809590959B01AC01BD01CF010895A5
:1008A000EE0FFF1F0590F491E02D0994CF93DF9395
:1008B0008230910510F482E090E0E0914E02F091D8
:1008C0004F0220E030E0C0E0D0E0309711F14081ED
:1008D000518148175907C0F04817590761F48281C0
:1008E0009381209719F09B838A832BC090934F02AA
:1008F00080934E0226C02115310519F04217530787
:1009000018F49A01BE01DF01EF010280F381E02DAE
:10091000DCCF2115310509F1281B390B24303105B5
:1009200090F412968D919C9113976115710521F0A9
:10093000FB019383828304C090934F0280934E0205
:10094000FD01329644C0FD01E20FF31F81939193A4
:10095000225031092D933C933AC020914C023091A2
:100960004D02232B41F42091020130910301309379
:100970004D0220934C02209100013091010121157C
:10098000310541F42DB73EB7409104015091050166
:10099000241B350BE0914C02F0914D02E217F30756
:1009A000A0F42E1B3F0B2817390778F0AC014E5FDF
:1009B0005F4F2417350748F04E0F5F1F50934D02CD
:1009C00040934C028193919302C0E0E0F0E0CF01AC
:1009D000DF91CF9108950F931F93CF93DF930097EB
:1009E00009F48CC0FC0132971382128200914E02EE
:1009F00010914F020115110581F420813181820F80
:100A0000931F20914C0230914D022817390779F538
:100A1000F0934D02E0934C0271C0D80140E050E0E9
:100A2000AE17BF0750F412962D913C911397AD016C
:100A30002115310509F1D901F3CF9D01DA01338385
:100A4000228360817181860F971F8217930769F453
:100A5000EC0128813981260F371F2E5F3F4F3183EC
:100A600020838A819B8193838283452B29F4F09391
:100A70004F02E0934E0242C01396FC93EE931297FE
:100A8000ED01499159919E01240F351FE217F3079B
:100A900071F480819181840F951F029611969C9329
:100AA0008E938281938113969C938E931297E0E0AC
:100AB000F0E0D80112968D919C911397009719F050
:100AC000F8018C01F6CF8D919C9198012E5F3F4FDC
:100AD000820F931F20914C0230914D022817390745
:100AE00069F4309729F410924F0210924E0202C01E
:100AF0001382128210934D0200934C02DF91CF912A
:100B00001F910F91089581E090E0F8940C9488056E
:040B1000F894FFCF87
:100B140000005002800000000000E3005F00AC0011
:100B24008A009E002A01564D4450565F317C315F45
:100B3400564D4450560D0A002323232323232323F5
:100B44002323232323232323232323232323232371
:100B54002323232323232323232323232323232361
:060B6400232323230000FF
:00000001FF
