:100000000C9462000C948A000C948A000C948A0070
:100010000C948A000C948A000C948A000C948A0038
:100020000C948A000C948A000C948A000C948A0028
:100030000C948A000C948A000C948A000C948A0018
:100040000C94EE030C948A000C94BC030C9496035D
:100050000C948A000C948A000C948A000C948A00F8
:100060000C948A000C948A000000000023002600F3
:10007000290000000000240027002A0000000000E2
:10008000250028002B0004040404040404040202D4
:100090000202020203030303030301020408102007
:1000A0004080010204081020010204081020000012
:1000B0000008000201000003040700000000000027
:1000C0000000380411241FBECFEFD8E0DEBFCDBF43
:1000D00022E0ACEAB1E001C01D92A73AB207E1F715
:1000E00011E0A0E0B1E0E0EAFEE002C005900D9270
:1000F000AC3AB107D9F710E0C2E6D0E004C02197CE
:10010000FE010E941606C136D107C9F70E9483047A
:100110000C944E070C940000CF92DF92EF92FF9266
:100120000F931F93CF93DF936C017A018B01C0E093
:10013000D0E0CE15DF0589F0D8016D918D01D60193
:10014000ED91FC910190F081E02DC6010995892B7C
:1001500011F47E0102C02196ECCFC701DF91CF914F
:100160001F910F91FF90EF90DF90CF900895FC01C9
:10017000918D828D981761F0828DDF01A80FB11DDE
:100180005D968C91928D9F5F9F73928F90E0089502
:100190008FEF9FEF0895FC01918D828D981731F0BC
:1001A000828DE80FF11D858D90E008958FEF9FEF10
:1001B0000895FC01918D228D892F90E0805C9F4FE6
:1001C000821B91098F739927089585EB91E00E9416
:1001D000D90021E0892B09F420E0822F0895FC0149
:1001E000848DDF01A80FB11DA35ABF4F2C91848DC0
:1001F00090E001968F739927848FA689B7892C93F5
:10020000A089B1898C9180648C93938D848D98138F
:1002100006C00288F389E02D80818F7D8083089558
:10022000EF92FF920F931F93CF93DF93EC0181E046
:10023000888F9B8D8C8D981305C0E889F989808102
:1002400085FD24C0F62E0B8D10E00F5F1F4F0F733E
:100250001127E02E8C8DE8120CC00FB607FCFACFE8
:10026000E889F989808185FFF5CFCE010E94EF00F2
:10027000F1CF8B8DFE01E80FF11DE35AFF4FF082A5
:100280000B8FEA89FB898081806207C0EE89FF8934
:100290006083E889F98980818064808381E090E0CF
:1002A000DF91CF911F910F91FF90EF900895CF9321
:1002B000DF93EC01888D8823C9F0EA89FB8980816E
:1002C00085FD05C0A889B9898C9186FD0FC00FB640
:1002D00007FCF5CF808185FFF2CFA889B9898C9181
:1002E00085FFEDCFCE010E94EF00E7CFDF91CF91E8
:1002F000089580E090E0892B29F00E94E5008111AB
:100300000C9400000895833081F028F4813099F036
:100310008230A1F008958730A9F08830B9F0843098
:10032000D1F4809180008F7D03C0809180008F7711
:1003300080938000089584B58F7702C084B58F7D47
:1003400084BD08958091B0008F7703C08091B00084
:100350008F7D8093B00008951F93CF93DF93EBEBD5
:10036000F0E09491E7EAF0E0D491E3E9F0E0C491A1
:10037000CC23D9F0182F992319F0892F0E948301DB
:10038000EC2FF0E0EE0FFF1FE458FF4FA591B49162
:100390008FB7F894111105C09C91ED2FE095E923DA
:1003A00002C0EC91ED2BEC938FBFDF91CF911F91A9
:1003B0000895CF93DF93282F30E0F901E255FF4FE6
:1003C0008491F901E656FF4FD491F901EA57FF4FA6
:1003D000C491CC2391F081110E948301EC2FF0E0B5
:1003E000EE0FFF1FE859FF4FA591B491EC91ED235B
:1003F00081E090E021F480E002C080E090E0DF91B5
:10040000CF9108953FB7F8948091AD019091AE01DE
:10041000A091AF01B091B00126B5A89B05C02F3FB8
:1004200019F00196A11DB11D3FBFBA2FA92F982F1A
:100430008827820F911DA11DB11DBC01CD0142E095
:10044000660F771F881F991F4A95D1F708958F92DD
:100450009F92AF92BF92CF92DF92EF92FF926B0189
:100460007C010E9402024B015C01C114D104E10431
:10047000F104F1F00E940202DC01CB018819990914
:10048000AA09BB09883E9340A105B10570F321E09C
:10049000C21AD108E108F10888EE880E83E0981EA0
:1004A000A11CB11CC114D104E104F10419F7DDCF82
:1004B000FF90EF90DF90CF90BF90AF909F908F9084
:1004C000089581E00C94AC0180E00C94AC016115BE
:1004D000710579F0FB0101900020E9F73197AF0138
:1004E000461B570BDC01ED91FC910280F381E02D5E
:1004F000099480E090E008954F925F926F927F920E
:10050000EF92FF920F931F93CF93DF93CDB7DEB798
:10051000A1970FB6F894DEBF0FBECDBF7C01FA01E4
:10052000CB0119A2223008F42AE08E010F5D1F4F83
:10053000422E512C612C712CBF01A30192010E940B
:10054000F405F901CA01015011096A3014F4605D23
:1005500001C0695CD8016C93232B242B252B61F7F8
:10056000B801C7010E946702A1960FB6F894DEBFDA
:100570000FBECDBFDF91CF911F910F91FF90EF90F4
:100580007F906F905F904F900895CF92DF92EF929F
:10059000FF92CF93DF936B017C01E091B501F09165
:1005A000B6010190F081E02D6DE285EB91E00995B7
:1005B000EC0144275527BA014C195D096E097F09E2
:1005C0002AE085EB91E00E947C028C0F9D1FDF9159
:1005D000CF91FF90EF90DF90CF900895CF93DF936E
:1005E000AC01990F660B770B77FF05C0CB01BA0101
:1005F0000E94C50205C02AE085EB91E00E947C02C2
:10060000EC0169EA71E085EB91E00E9467028C0FD2
:100610009D1FDF91CF9108950F931F93CF93DF9389
:1006200089E00E94D901EC0166E271E085EB91E07E
:100630000E946702AE010D2E000C660B770B77FF50
:1006400005C0CB01BA010E94C50205C02AE085EBB6
:1006500091E00E947C028DE00E94D9018C0164E44B
:1006600071E085EB91E00E946702C8010E94EE02F2
:10067000CD2B89F400919A0210919B02F801C4815C
:10068000D581E881F9810280F381E02DCE010995C1
:10069000F801D183C083DF91CF911F910F9108950D
:1006A0000F931F93CF93DF9389E00E94D901EC0150
:1006B0006FE571E085EB91E00E946702AE010D2EBF
:1006C000000C660B770B77FF05C0CB01BA010E94C7
:1006D000C50205C02AE085EB91E00E947C028DE016
:1006E0000E94D9018C016EE771E085EB91E00E94D8
:1006F0006702C8010E94EE02219789F400919A02D4
:1007000010919B02F801C281D381E881F9810280B6
:10071000F381E02DCE010995F801D183C083DF91EB
:10072000CF911F910F9108950E9449071F920F9238
:100730000FB60F9211242F933F934F935F936F93B4
:100740007F938F939F93AF93BF93EF93FF9385EB2B
:1007500091E00E94EF00FF91EF91BF91AF919F91C7
:100760008F917F916F915F914F913F912F910F905A
:100770000FBE0F901F9018951F920F920FB60F92F9
:1007800011242F938F939F93EF93FF93E091C501D3
:10079000F091C6018081E091CB01F091CC0182FD06
:1007A00012C090818091CE018F5F8F732091CF0115
:1007B000821751F0E091CE01F0E0EB54FE4F958F9F
:1007C0008093CE0101C08081FF91EF919F918F9125
:1007D0002F910F900FBE0F901F9018951F920F92A0
:1007E0000FB60F9211242F933F938F939F93AF9344
:1007F000BF938091B1019091B201A091B301B091EA
:10080000B4013091AC0123E0230F2D3720F4019681
:10081000A11DB11D05C026E8230F0296A11DB11D23
:100820002093AC018093B1019093B201A093B301E6
:10083000B093B4018091AD019091AE01A091AF0150
:10084000B091B0010196A11DB11D8093AD019093AF
:10085000AE01A093AF01B093B001BF91AF919F9152
:100860008F913F912F910F900FBE0F901F90189571
:10087000E5EBF1E01382128288EE93E0A0E0B0E0B5
:1008800084839583A683B7838AE191E091838083F3
:1008900085EC90E09587848784EC90E09787868745
:1008A00080EC90E0918B808B81EC90E0938B828B3D
:1008B00082EC90E0958B848B86EC90E0978B868B16
:1008C000118E128E138E148EE2E5F2E016821782DC
:1008D000108611861286138614861586168617864C
:1008E000108A118A128A138A148A158AECE9F2E0B6
:1008F000118210821382128215821482F0939B025D
:10090000E0939A020895789484B5826084BD84B59A
:10091000816084BD85B5826085BD85B5816085BDFA
:1009200080916E00816080936E00109281008091B2
:10093000810082608093810080918100816080933A
:100940008100809180008160809380008091B1005F
:1009500084608093B1008091B00081608093B0008A
:1009600080917A00846080937A0080917A0082601E
:1009700080937A0080917A00816080937A008091E0
:100980007A00806880937A001092C10010929602DB
:1009900010929702109298021092990210925402AB
:1009A00010925502109256021092570268EB7BE0AB
:1009B00080E090E00E94270285EB91E09093950201
:1009C00080939402E091C501F091C60182E080839A
:1009D000E091C101F091C2011082E091C301F09158
:1009E000C40180E180831092CD01E091C901F091B2
:1009F000CA0186E08083E091C701F091C80180813F
:100A000080618083E091C701F091C8018081886096
:100A10008083E091C701F091C80180818068808364
:100A2000E091C701F091C80180818F7D80832FB74D
:100A3000F8948091B1019091B201A091B301B0916D
:100A4000B4012FBF8093540290935502A093560295
:100A5000B09357026AE971E08091940290919502F7
:100A60000E9467026AE070E080E090E00E94270246
:100A700081E080936802E7EAF0E02491E3E9F0E0A6
:100A80008491882399F090E0880F991FFC01EE581B
:100A9000FF4FA591B491FC01E458FF4F85919491CB
:100AA0008FB7F894EC91E22BEC938FBFE3EAF0E080
:100AB0002491EFE8F0E084918823C1F090E0880F62
:100AC000991FFC01EE58FF4FC591D491FC01E458E9
:100AD000FF4FA591B4919FB7F8948881E22FE095DC
:100AE0008E2388838C91E823EC939FBFE091C5010E
:100AF000F091C60182E08083E091C101F091C201D2
:100B00001082E091C301F091C4018FEC80831092B8
:100B1000CD01E091C901F091CA0186E08083E091A6
:100B2000C701F091C801808180618083E091C70195
:100B3000F091C801808188608083E091C701F091C5
:100B4000C801808180688083E091C701F091C8016D
:100B500080818F7D808380919E0290919F02892B5E
:100B600001F58091A0029091A102892BD1F482E03D
:100B700090E00E941C0622E131E0DC012D933C93C1
:100B800090939F0280939E0282E090E00E941C0658
:100B90002AE031E0FC01318320839093A10280930D
:100BA000A0028091A0029091A102DC01ED91FC9144
:100BB0000280F381E02D09958091A0029091A1021D
:100BC00090939D0280939C0280919C0290919D0243
:100BD000009739F0DC01ED91FC910190F081E02D5E
:100BE00009950E947901F0CFA1E21A2EAA1BBB1B26
:100BF000FD010DC0AA1FBB1FEE1FFF1FA217B307E9
:100C0000E407F50720F0A21BB30BE40BF50B661FFE
:100C1000771F881F991F1A9469F7609570958095C2
:100C200090959B01AC01BD01CF010895EE0FFF1F10
:100C30000590F491E02D0994CF93DF9382309105D4
:100C400010F482E090E0E091A502F091A60220E08D
:100C500030E0C0E0D0E0309711F140815181481779
:100C60005907C0F04817590761F482819381209792
:100C700019F09B838A832BC09093A6028093A502D0
:100C800026C02115310519F04217530718F49A01AF
:100C9000BE01DF01EF010280F381E02DDCCF2115E1
:100CA000310509F1281B390B2430310590F41296D7
:100CB0008D919C9113976115710521F0FB01938330
:100CC000828304C09093A6028093A502FD01329610
:100CD00044C0FD01E20FF31F81939193225031092B
:100CE0002D933C933AC02091A3023091A402232B70
:100CF00041F420910201309103013093A40220932A
:100D0000A30220910001309101012115310541F428
:100D10002DB73EB74091040150910501241B350BBE
:100D2000E091A302F091A402E217F307A0F42E1BB6
:100D30003F0B2817390778F0AC014E5F5F4F24173F
:100D4000350748F04E0F5F1F5093A4024093A30253
:100D50008193919302C0E0E0F0E0CF01DF91CF9169
:100D600008950F931F93CF93DF93009709F48CC0DE
:100D7000FC013297138212820091A5021091A60203
:100D80000115110581F420813181820F931F20917B
:100D9000A3023091A4022817390779F5F093A40231
:100DA000E093A30271C0D80140E050E0AE17BF0746
:100DB00050F412962D913C911397AD0121153105F8
:100DC00009F1D901F3CF9D01DA01338322836081D8
:100DD0007181860F971F8217930769F4EC012881B0
:100DE0003981260F371F2E5F3F4F318320838A8141
:100DF0009B8193838283452B29F4F093A602E09391
:100E0000A50242C01396FC93EE931297ED0149910F
:100E100059919E01240F351FE217F30771F4808169
:100E20009181840F951F029611969C938E938281D7
:100E3000938113969C938E931297E0E0F0E0D80193
:100E400012968D919C911397009719F0F8018C01DF
:100E5000F6CF8D919C9198012E5F3F4F820F931F8B
:100E60002091A3023091A4022817390769F4309722
:100E700029F41092A6021092A50202C013821282D7
:100E80001093A4020093A302DF91CF911F910F91C1
:100E9000089581E090E0F8940C944E07F894FFCF09
:100EA0000000A70280000000000050036402000060
:100EB00000000C0361020000000010018C00D9004A
:100EC000B700CB0057010A2056616C7565206F662C
:100ED00020427574746F6E20284F4E205354415435
:100EE000452909000A2056616C7565206F66204C03
:100EF000454420284F4E2053544154452909000AA7
:100F00002056616C7565206F6620427574746F6E33
:100F100020284F46462053544154452909000A20B1
:100F200056616C7565206F66204C454420284F46FD
:100F300046205354415445290900564D4450565FAC
:0C0F4000317C315F564D4450560D0A00C4
:00000001FF
