:100000000C9462000C948A000C948A000C948A0070
:100010000C948A000C948A000C948A000C948A0038
:100020000C948A000C948A000C948A000C948A0028
:100030000C948A000C948A000C948A000C948A0018
:100040000C94CE020C948A000C949C020C947602C0
:100050000C948A000C948A000C948A000C948A00F8
:100060000C948A000C948A000000000024002700F1
:100070002A000000000023002600290000000000E4
:10008000250028002B0004040404040404040202D4
:100090000202020203030303030301020408102007
:1000A0004080010204081020010204081020000012
:1000B0000008000201000003040700000000000027
:1000C0000000180311241FBECFEFD8E0DEBFCDBF64
:1000D00022E0A2E2B1E001C01D92A831B207E1F72F
:1000E00011E0A0E0B1E0E0E2F9E002C005900D927D
:1000F000A232B107D9F710E0C2E6D0E004C02197E0
:10010000FE010E948304C136D107C9F70E9465032E
:100110000C948E040C940000CF92DF92EF92FF9229
:100120000F931F93CF93DF936C017A018B01C0E093
:10013000D0E0CE15DF0589F0D8016D918D01D60193
:10014000ED91FC910190F081E02DC6010995892B7C
:1001500011F47E0102C02196ECCFC701DF91CF914F
:100160001F910F91FF90EF90DF90CF900895FC01C9
:10017000918D828D981761F0828DDF01A80FB11DDE
:100180005D968C91928D9F5F9F73928F90E0089502
:100190008FEF9FEF0895FC01918D828D981731F0BC
:1001A000828DE80FF11D858D90E008958FEF9FEF10
:1001B0000895FC01918D228D892F90E0805C9F4FE6
:1001C000821B91098F73992708958BE291E00E9419
:1001D000D90021E0892B09F420E0822F0895FC0149
:1001E000848DDF01A80FB11DA35ABF4F2C91848DC0
:1001F00090E001968F739927848FA689B7892C93F5
:10020000A089B1898C9180648C93938D848D98138F
:1002100006C00288F389E02D80818F7D8083089558
:10022000EF92FF920F931F93CF93DF93EC0181E046
:10023000888F9B8D8C8D981305C0E889F989808102
:1002400085FD24C0F62E0B8D10E00F5F1F4F0F733E
:100250001127E02E8C8DE8120CC00FB607FCFACFE8
:10026000E889F989808185FFF5CFCE010E94EF00F2
:10027000F1CF8B8DFE01E80FF11DE35AFF4FF082A5
:100280000B8FEA89FB898081806207C0EE89FF8934
:100290006083E889F98980818064808381E090E0CF
:1002A000DF91CF911F910F91FF90EF900895CF9321
:1002B000DF93EC01888D8823C9F0EA89FB8980816E
:1002C00085FD05C0A889B9898C9186FD0FC00FB640
:1002D00007FCF5CF808185FFF2CFA889B9898C9181
:1002E00085FFEDCFCE010E94EF00E7CFDF91CF91E8
:1002F000089580E090E0892B29F00E94E5008111AB
:100300000C9400000895833081F028F4813099F036
:100310008230A1F008958730A9F08830B9F0843098
:10032000D1F4809180008F7D03C0809180008F7711
:1003300080938000089584B58F7702C084B58F7D47
:1003400084BD08958091B0008F7703C08091B00084
:100350008F7D8093B00008951F93CF93DF93EBEBD5
:10036000F0E09491E7EAF0E0D491E3E9F0E0C491A1
:10037000CC23D9F0182F992319F0892F0E948301DB
:10038000EC2FF0E0EE0FFF1FE458FF4FA591B49162
:100390008FB7F894111105C09C91ED2FE095E923DA
:1003A00002C0EC91ED2BEC938FBFDF91CF911F91A9
:1003B0000895CF93DF9390E0FC01E656FF4F249120
:1003C000FC01EA57FF4F8491882361F190E0880F88
:1003D000991FFC01E859FF4FC591D491FC01E458E5
:1003E000FF4FA591B491611109C09FB7F89488811E
:1003F000209582238883EC912E230BC0623061F418
:100400009FB7F8943881822F809583238883EC915D
:100410002E2B2C939FBF06C08FB7F894E8812E2B0C
:1004200028838FBFDF91CF9108953FB7F8948091D3
:10043000230190912401A0912501B091260126B5B8
:10044000A89B05C02F3F19F00196A11DB11D3FBF0C
:10045000BA2FA92F982F8827820F911DA11DB11D9A
:10046000BC01CD0142E0660F771F881F991F4A9596
:10047000D1F708958F929F92AF92BF92CF92DF9261
:10048000EF92FF926B017C010E9415024B015C010F
:10049000C114D104E104F104F1F00E941502DC0161
:1004A000CB0188199909AA09BB09883E9340A10587
:1004B000B10570F321E0C21AD108E108F10888EE15
:1004C000880E83E0981EA11CB11CC114D104E10464
:1004D000F10419F7DDCFFF90EF90DF90CF90BF9040
:1004E000AF909F908F9008950E9489041F920F9261
:1004F0000FB60F9211242F933F934F935F936F93F7
:100500007F938F939F93AF93BF93EF93FF938BE270
:1005100091E00E94EF00FF91EF91BF91AF919F9109
:100520008F917F916F915F914F913F912F910F909C
:100530000FBE0F901F9018951F920F920FB60F923B
:1005400011242F938F939F93EF93FF93E0913B019F
:10055000F0913C018081E0914101F091420182FDE6
:1005600012C09081809144018F5F8F73209145016B
:10057000821751F0E0914401F0E0E55DFE4F958F68
:100580008093440101C08081FF91EF919F918F91F1
:100590002F910F900FBE0F901F9018951F920F92E2
:1005A0000FB60F9211242F933F938F939F93AF9386
:1005B000BF938091270190912801A0912901B091CA
:1005C0002A013091220123E0230F2D3720F40196D8
:1005D000A11DB11D05C026E8230F0296A11DB11D66
:1005E000209322018093270190932801A093290151
:1005F000B0932A018091230190912401A0912501BB
:10060000B09126010196A11DB11D80932301909305
:100610002401A0932501B0932601BF91AF919F9132
:100620008F913F912F910F900FBE0F901F901895B3
:10063000EBE2F1E01382128288EE93E0A0E0B0E0FA
:1006400084839583A683B78384E091E0918380833C
:1006500085EC90E09587848784EC90E09787868787
:1006600080EC90E0918B808B81EC90E0938B828B7F
:1006700082EC90E0958B848B86EC90E0978B868B58
:10068000118E128E138E148EE8ECF1E01682178212
:10069000108611861286138614861586168617868E
:1006A000108A118A128A138A148A158AE0E1F2E00C
:1006B0008DE090E09583848389E090E09783868342
:1006C00081E090E0918380830895789484B582607E
:1006D00084BD84B5816084BD85B5826085BD85B5E6
:1006E000816085BD80916E00816080936E00109264
:1006F00081008091810082608093810080918100DF
:10070000816080938100809180008160809380006F
:100710008091B10084608093B1008091B0008160CD
:100720008093B00080917A00846080937A008091F9
:100730007A00826080937A0080917A008160809351
:100740007A0080917A00806880937A001092C100CC
:1007500010920C0210920D0210920E0210920F02D3
:100760001092CA011092CB011092CC011092CD01CF
:1007700068EB7BE080E090E00E943A028BE291E03F
:1007800090930B0280930A02E0913B01F0913C01AF
:1007900082E08083E0913701F09138011082E0918E
:1007A0003901F0913A0180E1808310924301E09198
:1007B0003F01F091400186E08083E0913D01F0919E
:1007C0003E01808180618083E0913D01F0913E0196
:1007D000808188608083E0913D01F0913E018081BD
:1007E00080688083E0913D01F0913E0180818F7DA2
:1007F00080832FB7F8948091270190912801A091D0
:100800002901B0912A012FBF8093CA019093CB0197
:10081000A093CC01B093CD0180910A0290910B027C
:10082000DC01ED91FC910280F381E02D41E150E08B
:1008300060E171E009956AE070E080E090E00E947C
:100840003A0281E08093DE0161E0809114020E940F
:10085000D90160E0809116020E94D90161E08DE02B
:100860000E94D90180E00E94AC01C1E0D0E020915B
:100870001602309117023327F901E255FF4F849198
:10088000F901E656FF4F0491F901EA57FF4F149121
:100890001123A1F081110E948301E12FF0E0EE0FFE
:1008A000FF1FEE58FF4FA591B491EC91E02331E08A
:1008B00020E009F430E0832F922F02C080E090E026
:1008C0009093130280931202209110023091110232
:1008D0002115310521F02130310549F011C0892B56
:1008E00079F4D0931102C093100280E007C0019701
:1008F00039F4109211021092100281E00E94AC01B2
:100900000E947901B4CFEE0FFF1F0590F491E02D06
:10091000099481E090E0F8940C948E04F894FFCF51
:100920000000000010018C00D900B700CB00570177
:10093000564D4450565F317C315F564D4450560DF4
:020940000A00AB
:00000001FF
