:100000000C9462000C948A000C948A000C948A0070
:100010000C948A000C948A000C948A000C948A0038
:100020000C948A000C948A000C948A000C948A0028
:100030000C948A000C948A000C948A000C948A0018
:100040000C94E3020C948A000C94B1020C948B0281
:100050000C948A000C948A000C948A000C948A00F8
:100060000C948A000C948A000000000024002700F1
:100070002A000000000023002600290000000000E4
:10008000250028002B0004040404040404040202D4
:100090000202020203030303030301020408102007
:1000A0004080010204081020010204081020000012
:1000B0000008000201000003040700000000000027
:1000C00000002D0311241FBECFEFD8E0DEBFCDBF4F
:1000D00022E0A6E3B1E001C01D92A233B207E1F72E
:1000E00011E0A0E0B1E0E6EDFAE002C005900D926B
:1000F000A633B107D9F710E0C2E6D0E004C02197DB
:10010000FE010E945E05C136D107C9F70E9489032E
:100110000C9469050C940000CF92DF92EF92FF924D
:100120000F931F93CF93DF936C017A018B01C0E093
:10013000D0E0CE15DF0589F0D8016D918D01D60193
:10014000ED91FC910190F081E02DC6010995892B7C
:1001500011F47E0102C02196ECCFC701DF91CF914F
:100160001F910F91FF90EF90DF90CF900895FC01C9
:10017000918D828D981761F0828DDF01A80FB11DDE
:100180005D968C91928D9F5F9F73928F90E0089502
:100190008FEF9FEF0895FC01918D828D981731F0BC
:1001A000828DE80FF11D858D90E008958FEF9FEF10
:1001B0000895FC01918D228D892F90E0805C9F4FE6
:1001C000821B91098F73992708958BE391E00E9418
:1001D000D90021E0892B09F420E0822F0895FC0149
:1001E000848DDF01A80FB11DA35ABF4F2C91848DC0
:1001F00090E001968F739927848FA689B7892C93F5
:10020000A089B1898C9180648C93938D848D98138F
:1002100006C00288F389E02D80818F7D8083089558
:10022000EF92FF920F931F93CF93DF93EC0181E046
:10023000888F9B8D8C8D981305C0E889F989808102
:1002400085FD24C0F62E0B8D10E00F5F1F4F0F733E
:100250001127E02E8C8DE8120CC00FB607FCFACFE8
:10026000E889F989808185FFF5CFCE010E94EF00F2
:10027000F1CF8B8DFE01E80FF11DE35AFF4FF082A5
:100280000B8FEA89FB898081806207C0EE89FF8934
:100290006083E889F98980818064808381E090E0CF
:1002A000DF91CF911F910F91FF90EF900895CF9321
:1002B000DF93EC01888D8823C9F0EA89FB8980816E
:1002C00085FD05C0A889B9898C9186FD0FC00FB640
:1002D00007FCF5CF808185FFF2CFA889B9898C9181
:1002E00085FFEDCFCE010E94EF00E7CFDF91CF91E8
:1002F000089580E090E0892B29F00E94E5008111AB
:100300000C9400000895833081F028F4813099F036
:100310008230A1F008958730A9F08830B9F0843098
:10032000D1F4809180008F7D03C0809180008F7711
:1003300080938000089584B58F7702C084B58F7D47
:1003400084BD08958091B0008F7703C08091B00084
:100350008F7D8093B00008951F93CF93DF93EBEBD5
:10036000F0E09491E7EAF0E0D491E3E9F0E0C491A1
:10037000CC23D9F0182F992319F0892F0E948301DB
:10038000EC2FF0E0EE0FFF1FE458FF4FA591B49162
:100390008FB7F894111105C09C91ED2FE095E923DA
:1003A00002C0EC91ED2BEC938FBFDF91CF911F91A9
:1003B0000895CF93DF9390E0FC01E656FF4F249120
:1003C000FC01EA57FF4F8491882361F190E0880F88
:1003D000991FFC01E859FF4FC591D491FC01E458E5
:1003E000FF4FA591B491611109C09FB7F89488811E
:1003F000209582238883EC912E230BC0623061F418
:100400009FB7F8943881822F809583238883EC915D
:100410002E2B2C939FBF06C08FB7F894E8812E2B0C
:1004200028838FBFDF91CF9108953FB7F8948091D3
:10043000370190913801A0913901B0913A0126B568
:10044000A89B05C02F3F19F00196A11DB11D3FBF0C
:10045000BA2FA92F982F8827820F911DA11DB11D9A
:10046000BC01CD0142E0660F771F881F991F4A9596
:10047000D1F708958F929F92AF92BF92CF92DF9261
:10048000EF92FF926B017C010E9415024B015C010F
:10049000C114D104E104F104F1F00E941502DC0161
:1004A000CB0188199909AA09BB09883E9340A10587
:1004B000B10570F321E0C21AD108E108F10888EE15
:1004C000880E83E0981EA11CB11CC114D104E10464
:1004D000F10419F7DDCFFF90EF90DF90CF90BF9040
:1004E000AF909F908F9008950E94640561157105EB
:1004F00079F0FB0101900020E9F73197AF01461B2D
:10050000570BDC01ED91FC910280F381E02D099401
:1005100080E090E008951F920F920FB60F92112481
:100520002F933F934F935F936F937F938F939F93FB
:10053000AF93BF93EF93FF938BE391E00E94EF00A3
:10054000FF91EF91BF91AF919F918F917F916F91AB
:100550005F914F913F912F910F900FBE0F901F9081
:1005600018951F920F920FB60F9211242F938F930D
:100570009F93EF93FF93E0914B01F0914C018081A9
:10058000E0915101F091520182FD12C09081809161
:1005900054018F5F8F7320915501821751F0E091C4
:1005A0005401F0E0E55CFE4F958F8093540101C04B
:1005B0008081FF91EF919F918F912F910F900FBEAE
:1005C0000F901F9018951F920F920FB60F92112443
:1005D0002F933F938F939F93AF93BF93809120026C
:1005E00090912102A0912202B09123023091360114
:1005F00023E0230F2D3720F40196A11DB11D05C066
:1006000026E8230F0296A11DB11D20933601809389
:10061000200290932102A0932202B09323028091A2
:10062000370190913801A0913901B0913A010196BA
:10063000A11DB11D8093370190933801A09339011A
:10064000B0933A01BF91AF919F918F913F912F91BC
:100650000F900FBE0F901F901895EBE3F1E01382FF
:10066000128288EE93E0A0E0B0E084839583A683B5
:10067000B78384E091E09183808385EC90E0958757
:10068000848784EC90E09787868780EC90E0918B5C
:10069000808B81EC90E0938B828B82EC90E0958B49
:1006A000848B86EC90E0978B868B118E128E138E46
:1006B000148EE8EDF1E016821782108611861286FC
:1006C00013861486158616861786108A118A128A52
:1006D000138A148A158A2FB7F8948091200290917A
:1006E0002102A0912202B09123022FBFE4E2F2E0A6
:1006F00080839183A283B3838DE090E09387828788
:1007000089E090E09587848781E090E095838483F9
:100710000895CF93DF93CDB7DEB7A1970FB6F894C6
:10072000DEBF0FBECDBF789484B5826084BD84B532
:10073000816084BD85B5826085BD85B5816085BDDC
:1007400080916E00816080936E0010928100809194
:10075000810082608093810080918100816080931C
:100760008100809180008160809380008091B10041
:1007700084608093B1008091B00081608093B0006C
:1007800080917A00846080937A0080917A00826000
:1007900080937A0080917A00816080937A008091C2
:1007A0007A00806880937A001092C10010921C0237
:1007B00010921D0210921E0210921F021092DA0176
:1007C0001092DB011092DC011092DD0168EB7BE0FE
:1007D00080E090E00E943A028BE391E090931B024C
:1007E00080931A02E0914B01F0914C0102E00083EA
:1007F000E0914701F09148011082E0914901F091A8
:100800004A0180E1808310925301E0914F01F09101
:10081000500116E01083E0914D01F0914E0180816E
:1008200080618083E0914D01F0914E01808188606C
:100830008083E0914D01F0914E018081806880833A
:10084000E0914D01F0914E0180818F7D80832FB723
:10085000F8948091200290912102A0912202B091FF
:1008600023022FBF8093DA019093DB01A093DC0178
:10087000B093DD0160E171E080911A0290911B025A
:100880000E9476026AE070E080E090E00E943A0206
:1008900081E08093EE0161E080912E020E94D901F7
:1008A00060E0809130020E94D90161E08DE00E94F9
:1008B000D90180E00E94AC01E0914B01F0914C0124
:1008C0000083E0914701F09148011082E0914901D5
:1008D000F0914A018FEC808310925301E0914F0117
:1008E000F09150011083E0914D01F0914E01808113
:1008F00080618083E0914D01F0914E01808188609C
:100900008083E0914D01F0914E0180818068808369
:10091000E0914D01F0914E0180818F7D808301E057
:1009200010E09AE0C92ED12CE12CF12C409130023C
:10093000509131025527FA01E255FF4F8491FA0197
:10094000E656FF4FA490FA01EA57FF4FB490BB2040
:1009500091F081110E948301EB2DF0E0EE0FFF1F5B
:10096000EE58FF4FA591B491EC91AE2291E080E05A
:1009700021F490E002C090E080E090932A028093FE
:100980002B0262E271E08BE391E00E94760280909C
:100990002A0290902B02092C000CAA08BB08B7FE73
:1009A00026C0E0913B01F0913C010190F081E02DE7
:1009B0006DE28BE391E0099522273327A9012819DD
:1009C00039094A095B0919A2CE0181965C01CA0165
:1009D000B901A70196010E943C05605DF501629393
:1009E0005F01211531054105510589F715C0A501A4
:1009F000940119A2CE0181965C01CA01B901A70137
:100A000096010E943C05605DF50162935F0121152E
:100A100031054105510589F7B5018BE391E00E944D
:100A200076026FE171E08BE391E00E9476028091A3
:100A3000280290912902009719F0019769F019C0D6
:100A400080912A0290912B02892B99F4109329020C
:100A50000093280280E00BC080912A0290912B0223
:100A6000019739F4109229021092280281E00E9425
:100A7000AC010E9479015ACFA1E21A2EAA1BBB1B1E
:100A8000FD010DC0AA1FBB1FEE1FFF1FA217B3075A
:100A9000E407F50720F0A21BB30BE40BF50B661F70
:100AA000771F881F991F1A9469F760957095809534
:100AB00090959B01AC01BD01CF010895EE0FFF1F82
:100AC0000590F491E02D099481E090E0F8940C9465
:060AD0006905F894FFCF58
:100AD6000000000010018C00D900B700CB005701C0
:100AE600564D4450565F317C315F564D4450560D3D
:100AF6000A000A2056616C7565206F66204275747F
:060B0600746F6E2009006F
:107E0000112484B714BE81FFF0D085E080938100F7
:107E100082E08093C00088E18093C10086E0809377
:107E2000C20080E18093C4008EE0C9D0259A86E02C
:107E300020E33CEF91E0309385002093840096BBD3
:107E4000B09BFECF1D9AA8958150A9F7CC24DD24C4
:107E500088248394B5E0AB2EA1E19A2EF3E0BF2EE7
:107E6000A2D0813461F49FD0082FAFD0023811F036
:107E7000013811F484E001C083E08DD089C08234E0
:107E800011F484E103C0853419F485E0A6D080C0E4
:107E9000853579F488D0E82EFF2485D0082F10E0AE
:107EA000102F00270E291F29000F111F8ED06801E7
:107EB0006FC0863521F484E090D080E0DECF843638
:107EC00009F040C070D06FD0082F6DD080E0C81688
:107ED00080E7D80618F4F601B7BEE895C0E0D1E017
:107EE00062D089930C17E1F7F0E0CF16F0E7DF06D8
:107EF00018F0F601B7BEE89568D007B600FCFDCFD4
:107F0000A601A0E0B1E02C9130E011968C91119780
:107F100090E0982F8827822B932B1296FA010C0160
:107F200087BEE89511244E5F5F4FF1E0A038BF0790
:107F300051F7F601A7BEE89507B600FCFDCF97BE46
:107F4000E89526C08437B1F42ED02DD0F82E2BD052
:107F50003CD0F601EF2C8F010F5F1F4F84911BD097
:107F6000EA94F801C1F70894C11CD11CFA94CF0C13
:107F7000D11C0EC0853739F428D08EE10CD085E9AC
:107F80000AD08FE07ACF813511F488E018D01DD067
:107F900080E101D065CF982F8091C00085FFFCCF94
:107FA0009093C60008958091C00087FFFCCF809118
:107FB000C00084FD01C0A8958091C6000895E0E648
:107FC000F0E098E1908380830895EDDF803219F02E
:107FD00088E0F5DFFFCF84E1DECF1F93182FE3DFCA
:107FE0001150E9F7F2DF1F91089580E0E8DFEE27F6
:047FF000FF270994CA
:027FFE00040479
:0400000300007E007B
:00000001FF