:100000000C945D000C9485000C9485000C94850084
:100010000C9485000C9485000C9485000C9485004C
:100020000C9485000C9485000C9485000C9485003C
:100030000C9485000C9485000C9485000C9485002C
:100040000C94BC020C9485000C948A020C946402FB
:100050000C9485000C9485000C9485000C9485000C
:100060000C9485000C9485000000000024002700FB
:100070002A0000000000250028002B0004040404CE
:100080000404040402020202020203030303030342
:10009000010204081020408001020408102001021F
:1000A00004081020000000080002010000030407FB
:1000B0000000000000000000060311241FBECFEF67
:1000C000D8E0DEBFCDBF22E0A2E2B1E001C01D92C8
:1000D000A031B207E1F711E0A0E0B1E0EEEBF8E00B
:1000E00002C005900D92A232B107D9F710E0CDE51C
:1000F000D0E004C02197FE010E945204CC35D10704
:10010000C9F70E9445030C945D040C940000EBE2D7
:10011000F1E0A089B18982E08C93A485B5851C9219
:10012000A685B7858FEC8C93108EA489B58986E05F
:100130008C93A289B3898C9180618C93A289B389B5
:100140008C9188608C93A289B3898C9180688C9300
:100150000288F389E02D80818F7D80830895E1EB13
:10016000F0E02491EDE9F0E09491E9E8F0E0E49129
:10017000EE2309F43BC0222339F1233091F038F407
:100180002130A9F0223001F524B52F7D12C027308F
:1001900091F02830A1F02430B9F4209180002F7D17
:1001A00003C0209180002F77209380000DC024B5DC
:1001B0002F7724BD09C02091B0002F7703C0209174
:1001C000B0002F7D2093B000F0E0EE0FFF1FEE583F
:1001D000FF4FA591B4912FB7F894EC91811103C012
:1001E00090959E2301C09E2B9C932FBF0895CF9284
:1001F000DF92EF92FF920F931F93CF93DF936C01E7
:100200007A018B01C0E0D0E0CE15DF0589F0D8017E
:100210006D918D01D601ED91FC910190F081E02D61
:10022000C6010995892B11F47E0102C02196ECCFFD
:10023000C701DF91CF911F910F91FF90EF90DF9059
:10024000CF900895FC01918D828D981761F0828D79
:10025000DF01A80FB11D5D968C91928D9F5F9F73FA
:10026000928F90E008958FEF9FEF0895FC01918D9C
:10027000828D981731F0828DE80FF11D858D90E009
:1002800008958FEF9FEF0895FC01918D228D892FA6
:1002900090E0805C9F4F821B91098F73992708958E
:1002A0008BE291E00E94440121E0892B09F420E0D7
:1002B000822F0895FC01848DDF01A80FB11DA35A80
:1002C000BF4F2C91848D90E001968F739927848F76
:1002D000A689B7892C93A089B1898C9180648C936D
:1002E000938D848D981306C00288F389E02D808158
:1002F0008F7D80830895EF92FF920F931F93CF938A
:10030000DF93EC0181E0888F9B8D8C8D981305C065
:10031000E889F989808185FD24C0F62E0B8D10E0D7
:100320000F5F1F4F0F731127E02E8C8DE8120CC04A
:100330000FB607FCFACFE889F989808185FFF5CFF0
:10034000CE010E945A01F1CF8B8DFE01E80FF11D05
:10035000E35AFF4FF0820B8FEA89FB89808180622C
:1003600007C0EE89FF896083E889F989808180640C
:10037000808381E090E0DF91CF911F910F91FF90FA
:10038000EF900895CF93DF93EC01888D8823C9F017
:10039000EA89FB89808185FD05C0A889B9898C918E
:1003A00086FD0FC00FB607FCF5CF808185FFF2CF29
:1003B000A889B9898C9185FFEDCFCE010E945A01A1
:1003C000E7CFDF91CF91089580E090E0892B29F06D
:1003D0000E94500181110C94000008953FB7F894D9
:1003E0008091230190912401A0912501B0912601D3
:1003F00026B5A89B05C02F3F19F00196A11DB11D80
:100400003FBFBA2FA92F982F8827820F911DA11DBA
:10041000B11DBC01CD0142E0660F771F881F991FF7
:100420004A95D1F708958F929F92AF92BF92CF9243
:10043000DF92EF92FF926B017C010E94EE014B0173
:100440005C01C114D104E104F104F1F00E94EE0159
:10045000DC01CB0188199909AA09BB09883E9340A0
:10046000A105B10570F321E0C21AD108E108F10835
:1004700088EE880E83E0981EA11CB11CC114D10423
:10048000E104F10419F7DDCFFF90EF90DF90CF90FA
:10049000BF90AF909F908F9008950E94580461156F
:1004A000710579F0FB0101900020E9F73197AF0168
:1004B000461B570BDC01ED91FC910280F381E02D8E
:1004C000099480E090E008951F920F920FB60F926A
:1004D00011242F933F934F935F936F937F938F9349
:1004E0009F93AF93BF93EF93FF938BE291E00E94B2
:1004F0005A01FF91EF91BF91AF919F918F917F91A1
:100500006F915F914F913F912F910F900FBE0F9080
:100510001F9018951F920F920FB60F9211242F93D0
:100520008F939F93EF93FF93E0913B01F0913C01F8
:100530008081E0914101F091420182FD12C09081E1
:10054000809144018F5F8F7320914501821751F094
:10055000E0914401F0E0E55DFE4F958F809344010A
:1005600001C08081FF91EF919F918F912F910F900A
:100570000FBE0F901F9018951F920F920FB60F92FB
:1005800011242F933F938F939F93AF93BF938091A9
:10059000270190912801A0912901B0912A01309161
:1005A000220123E0230F2D3720F40196A11DB11D58
:1005B00005C026E8230F0296A11DB11D209322013C
:1005C0008093270190932801A0932901B0932A01D9
:1005D0008091230190912401A0912501B0912601E1
:1005E0000196A11DB11D8093230190932401A09336
:1005F0002501B0932601BF91AF919F918F913F91BB
:100600002F910F900FBE0F901F901895EBE2F1E025
:100610001382128288EE93E0A0E0B0E08483958399
:10062000A683B78384E091E09183808385EC90E09A
:100630009587848784EC90E09787868780EC90E0AC
:10064000918B808B81EC90E0938B828B82EC90E09D
:10065000958B848B86EC90E0978B868B118E128E17
:10066000138E148EE8ECF1E0168217821086118644
:10067000128613861486158616861786108A118AA6
:10068000128A138A148A158A0895CF93DF93CDB7FF
:10069000DEB7A1970FB6F894DEBF0FBECDBF78943A
:1006A00084B5826084BD84B5816084BD85B5826077
:1006B00085BD85B5816085BD80916E008160809328
:1006C0006E00109281008091810082608093810091
:1006D00080918100816080938100809180008160A1
:1006E000809380008091B10084608093B1008091FC
:1006F000B00081608093B00080917A008460809324
:100700007A0080917A00826080937A0080917A00EA
:10071000816080937A0080917A00806880937A006B
:100720001092C10010920C0210920D0210920E0253
:1007300010920F021092CA011092CB011092CC01BC
:100740001092CD0168EB7BE080E090E00E94130204
:100750008BE291E090930B0280930A020E94870043
:100760002FB7F8948091270190912801A091290139
:10077000B0912A012FBF8093CA019093CB01A0931F
:10078000CC01B093CD0160E171E080910A029091BB
:100790000B020E944F026AE070E080E090E00E944D
:1007A000130281E08093DE01EDE9F0E02491E9E8B5
:1007B000F0E08491882399F090E0880F991FFC0164
:1007C000E859FF4FA591B491FC01EE58FF4F859178
:1007D00094918FB7F894EC91E22BEC938FBF0E9429
:1007E00087008AE0882E912CA12CB12C7E018DE10E
:1007F000E80EF11C81E00E94AF0068EE73E080E03B
:1008000090E00E94130280E00E94AF0068EE73E067
:1008100080E090E00E94130219A28E010F5D1F4F2D
:1008200028EE33E040E050E0CA01B901A50194018F
:100830000E94300480E3860FF80182938F01EE1549
:10084000FF0591F7B7018BE291E00E944F026FE143
:1008500071E08BE291E00E944F020E94E401CACF56
:10086000A1E21A2EAA1BBB1BFD010DC0AA1FBB1FB4
:10087000EE1FFF1FA217B307E407F50720F0A21B26
:10088000B30BE40BF50B661F771F881F991F1A9493
:1008900069F760957095809590959B01AC01BD01BD
:1008A000CF010895EE0FFF1F0590F491E02D0994FC
:0E08B00081E090E0F8940C945D04F894FFCF82
:1008BE00000000007B01F700440122013601C20155
:1008CE00564D4450565F317C315F564D4450560D57
:0208DE000A000E
:107E0000112484B714BE81FFF0D085E080938100F7
:107E100082E08093C00088E18093C10086E0809377
:107E2000C20080E18093C4008EE0C9D0259A86E02C
:107E300020E33CEF91E0309385002093840096BBD3
:107E4000B09BFECF1D9AA8958150A9F7CC24DD24C4
:107E500088248394B5E0AB2EA1E19A2EF3E0BF2EE7
:107E6000A2D0813461F49FD0082FAFD0023811F036
:107E7000013811F484E001C083E08DD089C08234E0
:107E800011F484E103C0853419F485E0A6D080C0E4
:107E9000853579F488D0E82EFF2485D0082F10E0AE
:107EA000102F00270E291F29000F111F8ED06801E7
:107EB0006FC0863521F484E090D080E0DECF843638
:107EC00009F040C070D06FD0082F6DD080E0C81688
:107ED00080E7D80618F4F601B7BEE895C0E0D1E017
:107EE00062D089930C17E1F7F0E0CF16F0E7DF06D8
:107EF00018F0F601B7BEE89568D007B600FCFDCFD4
:107F0000A601A0E0B1E02C9130E011968C91119780
:107F100090E0982F8827822B932B1296FA010C0160
:107F200087BEE89511244E5F5F4FF1E0A038BF0790
:107F300051F7F601A7BEE89507B600FCFDCF97BE46
:107F4000E89526C08437B1F42ED02DD0F82E2BD052
:107F50003CD0F601EF2C8F010F5F1F4F84911BD097
:107F6000EA94F801C1F70894C11CD11CFA94CF0C13
:107F7000D11C0EC0853739F428D08EE10CD085E9AC
:107F80000AD08FE07ACF813511F488E018D01DD067
:107F900080E101D065CF982F8091C00085FFFCCF94
:107FA0009093C60008958091C00087FFFCCF809118
:107FB000C00084FD01C0A8958091C6000895E0E648
:107FC000F0E098E1908380830895EDDF803219F02E
:107FD00088E0F5DFFFCF84E1DECF1F93182FE3DFCA
:107FE0001150E9F7F2DF1F91089580E0E8DFEE27F6
:047FF000FF270994CA
:027FFE00040479
:0400000300007E007B
:00000001FF