:100000000C9435000C945D000C945D000C945D0024
:100010000C945D000C945D000C945D000C945D00EC
:100020000C945D000C945D000C945D000C945D00DC
:100030000C945D000C945D000C945D000C945D00CC
:100040000C9459030C945D000C9427030C94010349
:100050000C945D000C945D000C945D000C945D00AC
:100060000C945D000C945D00A30311241FBECFEF20
:10007000D8E0DEBFCDBF22E0A6E7B1E001C01D920F
:10008000A836B207E1F711E0A0E0B1E0EEE1FFE051
:1000900002C005900D92A637B107D9F710E0C5E36D
:1000A000D0E004C02197FE010E947B05C433D10734
:1000B000C9F70E94E2030C948D070C940000CF92C4
:1000C000DF92EF92FF920F931F93CF93DF936C0118
:1000D0007A018B01C0E0D0E0CE15DF0589F0D801B0
:1000E0006D918D01D601ED91FC910190F081E02D93
:1000F000C6010995892B11F47E0102C02196ECCF2F
:10010000C701DF91CF911F910F91FF90EF90DF908A
:10011000CF900895FC01918D828D981761F0828DAA
:10012000DF01A80FB11D5D968C91928D9F5F9F732B
:10013000928F90E008958FEF9FEF0895FC01918DCD
:10014000828D981731F0828DE80FF11D858D90E03A
:1001500008958FEF9FEF0895FC01918D228D892FD7
:1001600090E0805C9F4F821B91098F7399270895BF
:100170008FE791E00E94AC0021E0892B09F420E098
:10018000822F0895FC01848DDF01A80FB11DA35AB1
:10019000BF4F2C91848D90E001968F739927848FA7
:1001A000A689B7892C93A089B1898C9180648C939E
:1001B000938D848D981306C00288F389E02D808189
:1001C0008F7D80830895EF92FF920F931F93CF93BB
:1001D000DF93EC0181E0888F9B8D8C8D981305C097
:1001E000E889F989808185FD24C0F62E0B8D10E009
:1001F0000F5F1F4F0F731127E02E8C8DE8120CC07C
:100200000FB607FCFACFE889F989808185FFF5CF21
:10021000CE010E94C200F1CF8B8DFE01E80FF11DCF
:10022000E35AFF4FF0820B8FEA89FB89808180625D
:1002300007C0EE89FF896083E889F989808180643D
:10024000808381E090E0DF91CF911F910F91FF902B
:10025000EF900895CF93DF93EC01888D8823C9F048
:10026000EA89FB89808185FD05C0A889B9898C91BF
:1002700086FD0FC00FB607FCF5CF808185FFF2CF5A
:10028000A889B9898C9185FFEDCFCE010E94C2006B
:10029000E7CFDF91CF91089580E090E0892B29F09E
:1002A0000E94B80081110C94000008953FB7F894A3
:1002B0008091770190917801A0917901B0917A01B4
:1002C00026B5A89B05C02F3F19F00196A11DB11DB1
:1002D0003FBFBA2FA92F982F8827820F911DA11DEC
:1002E000B11DBC01CD0142E0660F771F881F991F29
:1002F0004A95D1F708958F929F92AF92BF92CF9275
:10030000DF92EF92FF926B017C010E9456014B013C
:100310005C01C114D104E104F104F1F00E94560122
:10032000DC01CB0188199909AA09BB09883E9340D1
:10033000A105B10570F321E0C21AD108E108F10866
:1003400088EE880E83E0981EA11CB11CC114D10454
:10035000E104F10419F7DDCFFF90EF90DF90CF902B
:10036000BF90AF909F908F9008956115710579F0BF
:10037000FB0101900020E9F73197AF01461B570BB5
:10038000DC01ED91FC910280F381E02D099480E085
:1003900090E00895CF93DF93FC0144815581608103
:1003A00071818FE791E00E945F00EC0163E471E0EE
:1003B0008FE791E00E94B5018C0F9D1FDF91CF91D7
:1003C00008950F931F93CF93DF93EC018881998158
:1003D000009729F02A813B812617370788F48B0183
:1003E0006F5F7F4F0E94AE06009761F0998388830C
:1003F0001B830A832C813D81232B11F4FC01108285
:1004000081E001C080E0DF91CF911F910F910895AD
:10041000CF93DF93EC0188819981009711F00E94BE
:100420001606198218821D821C821B821A82DF9195
:10043000CF910895EF92FF920F931F93CF93DF9385
:10044000EC017B0161157105F1F0FB0101900020C9
:10045000E9F73197E61BF70B0C811D813097B1F05E
:100460000E0F1F1FB8010E94E101882361F028814F
:1004700039818C819D81B701820F931F0E9486076D
:100480001D830C8303C0CE010E940802CE01DF91C0
:10049000CF911F910F91FF90EF900895EF92FF92EF
:1004A0000F931F93CF93DF93EC01198218821B8265
:1004B0001A821D821C826115710521F18B01FB01DD
:1004C00001900020E9F731977F01E61AF70AB7019A
:1004D0000E94E101811109C0CE01DF91CF911F91EE
:1004E0000F91FF90EF900C940802FD82EC82B8010E
:1004F00088819981DF91CF911F910F91FF90EF90AB
:100500000C948607DF91CF911F910F91FF90EF9090
:100510000895EF92FF920F931F93CF93DF93EC0117
:10052000FB0186179707B9F00081118101151105AC
:1005300039F0E480F580B7010E94E101811104C027
:10054000CE010E94080207C0FD82EC82B8018881BA
:1005500099810E948607CE01DF91CF911F910F9163
:10056000FF90EF900895CF93DF9300D000D000D09C
:10057000CDB7DEB71A8219821C821B821E821D82B1
:10058000CE0101960E94890262E271E0CE010196DD
:100590000E941A020E94CA0189819A810E9416064D
:1005A00026960FB6F894DEBF0FBECDBFDF91CF9178
:1005B0000895CF93DF9300D000D000D0CDB7DEB741
:1005C0001A8219821C821B821E821D82CE01019614
:1005D0000E9489026BE271E0CE0101960E941A022C
:1005E0000E94CA0189819A810E94160626960FB63A
:1005F000F894DEBF0FBECDBFDF91CF9108950E946A
:1006000078071F920F920FB60F9211242F933F93EA
:100610004F935F936F937F938F939F93AF93BF930A
:10062000EF93FF938FE791E00E94C200FF91EF915B
:10063000BF91AF919F918F917F916F915F914F91FA
:100640003F912F910F900FBE0F901F9018951F9202
:100650000F920FB60F9211242F938F939F93EF93C6
:10066000FF93E0918F01F09190018081E0919501DD
:10067000F091960182FD12C09081809198018F5F68
:100680008F7320919901821751F0E0919801F0E069
:10069000E158FE4F958F8093980101C08081FF91B2
:1006A000EF919F918F912F910F900FBE0F901F9000
:1006B00018951F920F920FB60F9211242F933F930C
:1006C0008F939F93AF93BF9380917B0190917C0117
:1006D000A0917D01B0917E013091760123E0230F3E
:1006E0002D3720F40196A11DB11D05C026E8230F6A
:1006F0000296A11DB11D2093760180937B019093FA
:100700007C01A0937D01B0937E018091770190914F
:100710007801A0917901B0917A010196A11DB11DD6
:100720008093770190937801A0937901B0937A0137
:10073000BF91AF919F918F913F912F910F900FBEDD
:100740000F901F901895EFE7F1E01382128288EE68
:1007500093E0A0E0B0E084839583A683B78386E12D
:1007600091E09183808385EC90E09587848784EC89
:1007700090E09787868780EC90E0918B808B81EC6E
:1007800090E0938B828B82EC90E0958B848B86EC4F
:1007900090E0978B868B118E128E138E148EECE167
:1007A000F2E016821782108611861286138614864E
:1007B000158616861786108A118A128A138A148A59
:1007C000158A0895CF93DF93CDB7DEB72A970FB67A
:1007D000F894DEBF0FBECDBF789484B5826084BD2F
:1007E00084B5816084BD85B5826085BD85B5816035
:1007F00085BD80916E00816080936E0010928100B3
:10080000809181008260809381008091810081606D
:10081000809381008091800081608093800080912E
:10082000B10084608093B1008091B00081608093BA
:10083000B00080917A00846080937A0080917A0081
:10084000826080937A0080917A00816080937A0040
:1008500080917A00806880937A001092C100109293
:100860006002109261021092620210926302109272
:100870001E0210921F02109220021092210268EBB9
:100880007BE080E090E00E947B018FE791E0909315
:100890005F0280935E02E0918F01F091900102E08F
:1008A0000083E0918B01F0918C011082E0918D0129
:1008B000F0918E0180E1808310929701E091930185
:1008C000F091940116E01083E0919101F091920172
:1008D000808180618083E0919101F091920180811B
:1008E00088608083E0919101F0919201808180681D
:1008F0008083E0919101F091920180818F7D8083CE
:100900002FB7F89480917B0190917C01A0917D019B
:10091000B0917E012FBF80931E0290931F02A0937F
:100920002002B093210264E371E080915E02909115
:100930005F020E94B5016AE070E080E090E00E94F2
:100940007B0181E080933202E0918F01F091900170
:100950000083E0918B01F0918C011082E0918D0178
:10096000F0918E018FEC808310929701E0919301BA
:10097000F09194011083E0919101F09192018081B6
:1009800080618083E0919101F09192018081886083
:100990008083E0919101F091920180818068808351
:1009A000E0919101F091920180818F7D808380E1BF
:1009B000C82E81E0D82E9AE0E92E91E0F92EDA8651
:1009C000C986F886EF8266E471E0CE0101960E9446
:1009D0004E02BE016F5F7F4FCE0109960E94B302A7
:1009E00089819A810E94160682E090E00E9481052A
:1009F0008C01FC01D182C08268E571E0CE010196D4
:100A00000E944E02BE016F5F7F4FC8010E94B30279
:100A100089819A810E94160666E471E0CE010196F2
:100A20000E944E02BE016F5F7F4FCE0107960E946B
:100A3000D90289819A810E94160682E090E00E9484
:100A400081058C01FC01F182E08268E571E0CE0154
:100A500001960E944E02BE016F5F7F4FC8010E9447
:100A6000D90289819A810E94160665E671E08FE7B6
:100A700091E00E94B50163E471E08FE791E00E948C
:100A8000B5010E944C019BCF2F923F924F925F92F3
:100A90006F927F928F929F92AF92BF92CF92DF928E
:100AA000EF92FF920F931F93CF93DF93CDB7DEB7F3
:100AB000CA1BDB0B0FB6F894DEBF0FBECDBF099487
:100AC0002A88398848885F846E847D848C849B84DE
:100AD000AA84B984C884DF80EE80FD800C811B81EC
:100AE000AA81B981CE0FD11D0FB6F894DEBF0FBE1B
:100AF000CDBFED010895EE0FFF1F0590F491E02D9D
:100B00000994CF93DF938230910510F482E090E056
:100B1000E0916602F091670220E030E0C0E0D0E0B2
:100B2000309711F14081518148175907C0F048179B
:100B3000590761F482819381209719F09B838A83FE
:100B40002BC0909367028093660226C02115310561
:100B500019F04217530718F49A01BE01DF01EF01A3
:100B60000280F381E02DDCCF2115310509F1281B2E
:100B7000390B2430310590F412968D919C91139786
:100B80006115710521F0FB019383828304C090936A
:100B9000670280936602FD01329644C0FD01E20FB8
:100BA000F31F81939193225031092D933C933AC0C6
:100BB0002091640230916502232B41F420910201BF
:100BC000309103013093650220936402209100016B
:100BD000309101012115310541F42DB73EB7409107
:100BE000040150910501241B350BE0916402F09142
:100BF0006502E217F307A0F42E1B3F0B28173907F5
:100C000078F0AC014E5F5F4F2417350748F04E0F68
:100C10005F1F50936502409364028193919302C0D9
:100C2000E0E0F0E0CF01DF91CF9108950F931F93A3
:100C3000CF93DF93009709F48CC0FC0132971382A5
:100C4000128200916602109167020115110581F46C
:100C500020813181820F931F2091640230916502BF
:100C60002817390779F5F0936502E093640271C0A3
:100C7000D80140E050E0AE17BF0750F412962D9116
:100C80003C911397AD012115310509F1D901F3CF3D
:100C90009D01DA013383228360817181860F971F62
:100CA0008217930769F4EC0128813981260F371FD9
:100CB0002E5F3F4F318320838A819B819383828380
:100CC000452B29F4F0936702E093660242C0139625
:100CD000FC93EE931297ED01499159919E01240FD7
:100CE000351FE217F30771F480819181840F951FFE
:100CF000029611969C938E938281938113969C9376
:100D00008E931297E0E0F0E0D80112968D919C91BD
:100D10001397009719F0F8018C01F6CF8D919C91F3
:100D200098012E5F3F4F820F931F209164023091F4
:100D300065022817390769F4309729F41092670281
:100D40001092660202C01382128210936502009311
:100D50006402DF91CF911F910F910895A0E0B0E060
:100D6000E4EBF6E00C944805EC01009721F4CB018C
:100D70000E948105B8C0FC01E60FF71F9C012250BC
:100D80003109E217F30708F4ACC0D9010D911C91A9
:100D9000119706171707B0F00530110508F49FC02A
:100DA000C80104978617970708F499C002501109E3
:100DB000061B170B019311936D937C93CF010E9437
:100DC00016068DC05B01A01AB10A4C01800E911E5F
:100DD000A0916602B091670240E050E0E12CF12C56
:100DE000109709F44AC0A815B905D1F56D907C900B
:100DF0001197630182E0C80ED11CCA14DB0480F194
:100E0000A3014A195B096A0182E0C80ED11C12963F
:100E1000BC9012971396AC91B5E0CB16D10440F07C
:100E2000B282A38351834083D9016D937C930AC01E
:100E30000E5F1F4FC301800F911FF90191838083C3
:100E4000EB2DFA2FE114F10431F0D7011396FC9346
:100E5000EE93129744C0F0936702E09366023FC09E
:100E60008D919C9111974817590708F4AC017D01A9
:100E700012960D90BC91A02DB3CF809164029091F9
:100E8000650288159905E1F446175707C8F4809163
:100E9000000190910101009741F48DB79EB74091F8
:100EA000040150910501841B950BE817F907C8F45C
:100EB000F0936502E0936402F901718360830FC0CF
:100EC000CB010E9481057C01009759F0A801BE0169
:100ED0000E947D07CE010E941606C70104C0CE0104
:100EE00002C080E090E0CDB7DEB7EEE00C94640580
:100EF00081E090E0F8940C948D07FB01DC0102C0C6
:100F000001900D9241505040D8F70895FB01DC014B
:0E0F100001900D920020E1F70895F894FFCFB4
:100F1E0000006802800000000000D90200000000FE
:100F2E00B30200000000E3005F00AC008A009E00E8
:100F3E002A0166726F6D20446F670066726F6D20B6
:100F4E0043617400564D4450565F317C315F564DAF
:100F5E004450560D0A00616C7265616479206F62AF
:100F6E006A656374202D2D006E6577206F626A6549
:100F7E0063742D2D002323232323232323232323B1
:060F8E00232323230000D1
:00000001FF
