:100000000C9435000C945D000C945D000C945D0024
:100010000C945D000C945D000C945D000C945D00EC
:100020000C945D000C945D000C945D000C945D00DC
:100030000C945D000C945D000C945D000C945D00CC
:100040000C9424020C945D000C94F2010C94CC01ED
:100050000C945D000C945D000C945D000C945D00AC
:100060000C945D000C945D006E0211241FBECFEF56
:10007000D8E0DEBFCDBF22E0A2E3B1E001C01D9217
:10008000AA33B207E1F711E0A0E0B1E0E4ECF8E058
:1000900002C005900D92A233B107D9F710E0C5E375
:1000A000D0E004C02197FE010E945504C433D1075B
:1000B000C9F70E94D1020C9460040C940000CF9206
:1000C000DF92EF92FF920F931F93CF93DF936C0118
:1000D0007A018B01C0E0D0E0CE15DF0589F0D801B0
:1000E0006D918D01D601ED91FC910190F081E02D93
:1000F000C6010995892B11F47E0102C02196ECCF2F
:10010000C701DF91CF911F910F91FF90EF90DF908A
:10011000CF900895FC01918D828D981761F0828DAA
:10012000DF01A80FB11D5D968C91928D9F5F9F732B
:10013000928F90E008958FEF9FEF0895FC01918DCD
:10014000828D981731F0828DE80FF11D858D90E03A
:1001500008958FEF9FEF0895FC01918D228D892FD7
:1001600090E0805C9F4F821B91098F7399270895BF
:100170008DE391E00E94AC0021E0892B09F420E09E
:10018000822F0895FC01848DDF01A80FB11DA35AB1
:10019000BF4F2C91848D90E001968F739927848FA7
:1001A000A689B7892C93A089B1898C9180648C939E
:1001B000938D848D981306C00288F389E02D808189
:1001C0008F7D80830895EF92FF920F931F93CF93BB
:1001D000DF93EC0181E0888F9B8D8C8D981305C097
:1001E000E889F989808185FD24C0F62E0B8D10E009
:1001F0000F5F1F4F0F731127E02E8C8DE8120CC07C
:100200000FB607FCFACFE889F989808185FFF5CF21
:10021000CE010E94C200F1CF8B8DFE01E80FF11DCF
:10022000E35AFF4FF0820B8FEA89FB89808180625D
:1002300007C0EE89FF896083E889F989808180643D
:10024000808381E090E0DF91CF911F910F91FF902B
:10025000EF900895CF93DF93EC01888D8823C9F048
:10026000EA89FB89808185FD05C0A889B9898C91BF
:1002700086FD0FC00FB607FCF5CF808185FFF2CF5A
:10028000A889B9898C9185FFEDCFCE010E94C2006B
:10029000E7CFDF91CF91089580E090E0892B29F09E
:1002A0000E94B80081110C94000008953FB7F894A3
:1002B0008091330190913401A0913501B0913601C4
:1002C00026B5A89B05C02F3F19F00196A11DB11DB1
:1002D0003FBFBA2FA92F982F8827820F911DA11DEC
:1002E000B11DBC01CD0142E0660F771F881F991F29
:1002F0004A95D1F708958F929F92AF92BF92CF9275
:10030000DF92EF92FF926B017C010E9456014B013C
:100310005C01C114D104E104F104F1F00E94560122
:10032000DC01CB0188199909AA09BB09883E9340D1
:10033000A105B10570F321E0C21AD108E108F10866
:1003400088EE880E83E0981EA11CB11CC114D10454
:10035000E104F10419F7DDCFFF90EF90DF90CF902B
:10036000BF90AF909F908F9008950E945B0461159D
:10037000710579F0FB0101900020E9F73197AF0199
:10038000461B570BDC01ED91FC910280F381E02DBF
:10039000099480E090E008951F920F920FB60F929B
:1003A00011242F933F934F935F936F937F938F937A
:1003B0009F93AF93BF93EF93FF938DE391E00E94E0
:1003C000C200FF91EF91BF91AF919F918F917F916B
:1003D0006F915F914F913F912F910F900FBE0F90B2
:1003E0001F9018951F920F920FB60F9211242F9302
:1003F0008F939F93EF93FF93E0914D01F0914E0106
:100400008081E0915301F091540182FD12C09081EE
:10041000809156018F5F8F7320915701821751F0A1
:10042000E0915601F0E0E35CFE4F958F809356011A
:1004300001C08081FF91EF919F918F912F910F903B
:100440000FBE0F901F9018951F920F920FB60F922C
:1004500011242F933F938F939F93AF93BF938091DA
:10046000370190913801A0913901B0913A01309152
:10047000320123E0230F2D3720F40196A11DB11D79
:1004800005C026E8230F0296A11DB11D209332015D
:100490008093370190933801A0933901B0933A01CA
:1004A0008091330190913401A0913501B0913601D2
:1004B0000196A11DB11D8093330190933401A09347
:1004C0003501B0933601BF91AF919F918F913F91CC
:1004D0002F910F900FBE0F901F901895EDE3F1E054
:1004E0001382128288EE93E0A0E0B0E084839583CB
:1004F000A683B78384E091E09183808385EC90E0CC
:100500009587848784EC90E09787868780EC90E0DD
:10051000918B808B81EC90E0938B828B82EC90E0CE
:10052000958B848B86EC90E0978B868B118E128E48
:10053000138E148EEAEDF1E0168217821086118672
:10054000128613861486158616861786108A118AD7
:10055000128A138A148A158AE4E3F2E02AE030E072
:100560003183208385E090E095838483EEE2F2E09E
:100570003183208395838483E8E2F2E084E690E08F
:100580009183808382E390E095838483E2E2F2E0CA
:1005900088EC90E09183808386E990E09583848362
:1005A0000895CF93DF93CDB7DEB7A1970FB6F89438
:1005B000DEBF0FBECDBF789484B5826084BD84B5A4
:1005C000816084BD85B5826085BD85B5816085BD4E
:1005D00080916E00816080936E0010928100809106
:1005E000810082608093810080918100816080938E
:1005F0008100809180008160809380008091B100B3
:1006000084608093B1008091B00081608093B000DD
:1006100080917A00846080937A0080917A00826071
:1006200080937A0080917A00816080937A00809133
:100630007A00806880937A001092C10010921E02A6
:1006400010921F0210922002109221021092DC01DF
:100650001092DD011092DE011092DF0168EB7BE069
:1006600080E090E00E947B018DE391E090931D0279
:1006700080931C02E0914D01F0914E0102E0008355
:10068000E0914901F0914A011082E0914B01F09113
:100690004C0180E1808310925501E0915101F0916D
:1006A000520116E01083E0914F01F09150018081DA
:1006B00080618083E0914F01F091500180818860DA
:1006C0008083E0914F01F0915001808180688083A8
:1006D000E0914F01F091500180818F7D80832FB791
:1006E000F8948091370190913801A0913901B0912F
:1006F0003A012FBF8093DC019093DD01A093DE01CE
:10070000B093DF0160E171E080911C0290911D02C5
:100710000E94B7016AE070E080E090E00E947B01F7
:1007200081E08093F001E0914D01F0914E01008352
:10073000E0914901F0914A011082E0914B01F09162
:100740004C018FEC808310925501E0915101F091A2
:1007500052011083E0914F01F0915001808180613E
:100760008083E0914F01F091500180818860808307
:10077000E0914F01F0915001808180688083E09189
:100780004F01F091500180818F7D808380913B01EA
:1007900090913C014E9690933C0180933B018AE0FE
:1007A000882E912CA12CB12CC0903B01D0903C0103
:1007B0000D2C000CEE08FF08F7FE26C0E0913D016D
:1007C000F0913E010190F081E02D6DE28DE391E02A
:1007D000099522273327A9012C193D094E095F09E4
:1007E00019A28E010F5D1F4FCA01B901A501940125
:1007F0000E943304605DF80162938F012115310579
:100800004105510589F715C0A701960119A28E016E
:100810000F5D1F4FCA01B901A50194010E94330465
:10082000605DF80162938F01211531054105510585
:1008300089F7B8018DE391E00E94B7016FE171E0A3
:100840008DE391E00E94B70162E271E08DE391E0F7
:100850000E94B7016FE171E08DE391E00E94B70162
:100860000E944C01A1CFA1E21A2EAA1BBB1BFD01C5
:100870000DC0AA1FBB1FEE1FFF1FA217B307E4077F
:10088000F50720F0A21BB30BE40BF50B661F771FD7
:10089000881F991F1A9469F76095709580959095B7
:1008A0009B01AC01BD01CF010895EE0FFF1F059024
:1008B000F491E02D099481E090E0F8940C946004A8
:0408C000F894FFCFDA
:1008C40000000000E3005F00AC008A009E002A01E3
:1008D400564D4450565F317C315F564D4450560D51
:1008E4000A00232323232323232323232323232310
:0208F4002300DF
:00000001FF
